{
  "address": "0x8b143931c36FB8Aa1e6D45c8B79f7cAe7D089825",
  "abi": [
    {
      "inputs": [
        {
          "internalType": "address",
          "name": "priceFeed",
          "type": "address"
        },
        {
          "internalType": "string",
          "name": "lowSvg",
          "type": "string"
        },
        {
          "internalType": "string",
          "name": "highSvg",
          "type": "string"
        }
      ],
      "stateMutability": "nonpayable",
      "type": "constructor"
    },
    {
      "inputs": [
        {
          "internalType": "uint256",
          "name": "tokenId",
          "type": "uint256"
        }
      ],
      "name": "tokenURI__InvalidToken",
      "type": "error"
    },
    {
      "anonymous": false,
      "inputs": [
        {
          "indexed": true,
          "internalType": "address",
          "name": "owner",
          "type": "address"
        },
        {
          "indexed": true,
          "internalType": "address",
          "name": "approved",
          "type": "address"
        },
        {
          "indexed": true,
          "internalType": "uint256",
          "name": "tokenId",
          "type": "uint256"
        }
      ],
      "name": "Approval",
      "type": "event"
    },
    {
      "anonymous": false,
      "inputs": [
        {
          "indexed": true,
          "internalType": "address",
          "name": "owner",
          "type": "address"
        },
        {
          "indexed": true,
          "internalType": "address",
          "name": "operator",
          "type": "address"
        },
        {
          "indexed": false,
          "internalType": "bool",
          "name": "approved",
          "type": "bool"
        }
      ],
      "name": "ApprovalForAll",
      "type": "event"
    },
    {
      "anonymous": false,
      "inputs": [
        {
          "indexed": true,
          "internalType": "uint256",
          "name": "tokenId",
          "type": "uint256"
        },
        {
          "indexed": false,
          "internalType": "int256",
          "name": "highValue",
          "type": "int256"
        }
      ],
      "name": "CreatedNft",
      "type": "event"
    },
    {
      "anonymous": false,
      "inputs": [
        {
          "indexed": true,
          "internalType": "address",
          "name": "from",
          "type": "address"
        },
        {
          "indexed": true,
          "internalType": "address",
          "name": "to",
          "type": "address"
        },
        {
          "indexed": true,
          "internalType": "uint256",
          "name": "tokenId",
          "type": "uint256"
        }
      ],
      "name": "Transfer",
      "type": "event"
    },
    {
      "inputs": [
        {
          "internalType": "address",
          "name": "to",
          "type": "address"
        },
        {
          "internalType": "uint256",
          "name": "tokenId",
          "type": "uint256"
        }
      ],
      "name": "approve",
      "outputs": [],
      "stateMutability": "nonpayable",
      "type": "function"
    },
    {
      "inputs": [
        {
          "internalType": "address",
          "name": "owner",
          "type": "address"
        }
      ],
      "name": "balanceOf",
      "outputs": [
        {
          "internalType": "uint256",
          "name": "",
          "type": "uint256"
        }
      ],
      "stateMutability": "view",
      "type": "function"
    },
    {
      "inputs": [
        {
          "internalType": "uint256",
          "name": "tokenId",
          "type": "uint256"
        }
      ],
      "name": "getApproved",
      "outputs": [
        {
          "internalType": "address",
          "name": "",
          "type": "address"
        }
      ],
      "stateMutability": "view",
      "type": "function"
    },
    {
      "inputs": [],
      "name": "getHighSVG",
      "outputs": [
        {
          "internalType": "string",
          "name": "",
          "type": "string"
        }
      ],
      "stateMutability": "view",
      "type": "function"
    },
    {
      "inputs": [],
      "name": "getLowSVG",
      "outputs": [
        {
          "internalType": "string",
          "name": "",
          "type": "string"
        }
      ],
      "stateMutability": "view",
      "type": "function"
    },
    {
      "inputs": [],
      "name": "getPriceFeed",
      "outputs": [
        {
          "internalType": "contract AggregatorV3Interface",
          "name": "",
          "type": "address"
        }
      ],
      "stateMutability": "view",
      "type": "function"
    },
    {
      "inputs": [],
      "name": "getTokenCounter",
      "outputs": [
        {
          "internalType": "uint256",
          "name": "",
          "type": "uint256"
        }
      ],
      "stateMutability": "view",
      "type": "function"
    },
    {
      "inputs": [
        {
          "internalType": "address",
          "name": "owner",
          "type": "address"
        },
        {
          "internalType": "address",
          "name": "operator",
          "type": "address"
        }
      ],
      "name": "isApprovedForAll",
      "outputs": [
        {
          "internalType": "bool",
          "name": "",
          "type": "bool"
        }
      ],
      "stateMutability": "view",
      "type": "function"
    },
    {
      "inputs": [
        {
          "internalType": "int256",
          "name": "highValue",
          "type": "int256"
        }
      ],
      "name": "mintNft",
      "outputs": [],
      "stateMutability": "nonpayable",
      "type": "function"
    },
    {
      "inputs": [],
      "name": "name",
      "outputs": [
        {
          "internalType": "string",
          "name": "",
          "type": "string"
        }
      ],
      "stateMutability": "view",
      "type": "function"
    },
    {
      "inputs": [
        {
          "internalType": "uint256",
          "name": "tokenId",
          "type": "uint256"
        }
      ],
      "name": "ownerOf",
      "outputs": [
        {
          "internalType": "address",
          "name": "",
          "type": "address"
        }
      ],
      "stateMutability": "view",
      "type": "function"
    },
    {
      "inputs": [
        {
          "internalType": "address",
          "name": "from",
          "type": "address"
        },
        {
          "internalType": "address",
          "name": "to",
          "type": "address"
        },
        {
          "internalType": "uint256",
          "name": "tokenId",
          "type": "uint256"
        }
      ],
      "name": "safeTransferFrom",
      "outputs": [],
      "stateMutability": "nonpayable",
      "type": "function"
    },
    {
      "inputs": [
        {
          "internalType": "address",
          "name": "from",
          "type": "address"
        },
        {
          "internalType": "address",
          "name": "to",
          "type": "address"
        },
        {
          "internalType": "uint256",
          "name": "tokenId",
          "type": "uint256"
        },
        {
          "internalType": "bytes",
          "name": "data",
          "type": "bytes"
        }
      ],
      "name": "safeTransferFrom",
      "outputs": [],
      "stateMutability": "nonpayable",
      "type": "function"
    },
    {
      "inputs": [
        {
          "internalType": "address",
          "name": "operator",
          "type": "address"
        },
        {
          "internalType": "bool",
          "name": "approved",
          "type": "bool"
        }
      ],
      "name": "setApprovalForAll",
      "outputs": [],
      "stateMutability": "nonpayable",
      "type": "function"
    },
    {
      "inputs": [
        {
          "internalType": "bytes4",
          "name": "interfaceId",
          "type": "bytes4"
        }
      ],
      "name": "supportsInterface",
      "outputs": [
        {
          "internalType": "bool",
          "name": "",
          "type": "bool"
        }
      ],
      "stateMutability": "view",
      "type": "function"
    },
    {
      "inputs": [
        {
          "internalType": "string",
          "name": "svg",
          "type": "string"
        }
      ],
      "name": "svgToImageUri",
      "outputs": [
        {
          "internalType": "string",
          "name": "",
          "type": "string"
        }
      ],
      "stateMutability": "pure",
      "type": "function"
    },
    {
      "inputs": [],
      "name": "symbol",
      "outputs": [
        {
          "internalType": "string",
          "name": "",
          "type": "string"
        }
      ],
      "stateMutability": "view",
      "type": "function"
    },
    {
      "inputs": [
        {
          "internalType": "uint256",
          "name": "tokenId",
          "type": "uint256"
        }
      ],
      "name": "tokenURI",
      "outputs": [
        {
          "internalType": "string",
          "name": "",
          "type": "string"
        }
      ],
      "stateMutability": "view",
      "type": "function"
    },
    {
      "inputs": [
        {
          "internalType": "address",
          "name": "from",
          "type": "address"
        },
        {
          "internalType": "address",
          "name": "to",
          "type": "address"
        },
        {
          "internalType": "uint256",
          "name": "tokenId",
          "type": "uint256"
        }
      ],
      "name": "transferFrom",
      "outputs": [],
      "stateMutability": "nonpayable",
      "type": "function"
    }
  ],
  "transactionHash": "0x4f4de73dae164b82cce6081d7351d5436add114cdee7bf5798a5ddc484d3d4be",
  "args": [
    "0x694AA1769357215DE4FAC081bf1f309aDC325306",
    "<?xml version=\"1.0\" standalone=\"no\"?>\n<svg width=\"1024px\" height=\"1024px\" viewBox=\"0 0 1024 1024\" xmlns=\"http://www.w3.org/2000/svg\">\n  <path fill=\"#333\" d=\"M512 64C264.6 64 64 264.6 64 512s200.6 448 448 448 448-200.6 448-448S759.4 64 512 64zm0 820c-205.4 0-372-166.6-372-372s166.6-372 372-372 372 166.6 372 372-166.6 372-372 372z\"/>\n  <path fill=\"#E6E6E6\" d=\"M512 140c-205.4 0-372 166.6-372 372s166.6 372 372 372 372-166.6 372-372-166.6-372-372-372zM288 421a48.01 48.01 0 0 1 96 0 48.01 48.01 0 0 1-96 0zm376 272h-48.1c-4.2 0-7.8-3.2-8.1-7.4C604 636.1 562.5 597 512 597s-92.1 39.1-95.8 88.6c-.3 4.2-3.9 7.4-8.1 7.4H360a8 8 0 0 1-8-8.4c4.4-84.3 74.5-151.6 160-151.6s155.6 67.3 160 151.6a8 8 0 0 1-8 8.4zm24-224a48.01 48.01 0 0 1 0-96 48.01 48.01 0 0 1 0 96z\"/>\n  <path fill=\"#333\" d=\"M288 421a48 48 0 1 0 96 0 48 48 0 1 0-96 0zm224 112c-85.5 0-155.6 67.3-160 151.6a8 8 0 0 0 8 8.4h48.1c4.2 0 7.8-3.2 8.1-7.4 3.7-49.5 45.3-88.6 95.8-88.6s92 39.1 95.8 88.6c.3 4.2 3.9 7.4 8.1 7.4H664a8 8 0 0 0 8-8.4C667.6 600.3 597.5 533 512 533zm128-112a48 48 0 1 0 96 0 48 48 0 1 0-96 0z\"/>\n</svg>\n",
    "<svg viewBox=\"0 0 200 200\" width=\"400\"  height=\"400\" xmlns=\"http://www.w3.org/2000/svg\">\n  <circle cx=\"100\" cy=\"100\" fill=\"yellow\" r=\"78\" stroke=\"black\" stroke-width=\"3\"/>\n  <g class=\"eyes\">\n    <circle cx=\"61\" cy=\"82\" r=\"12\"/>\n    <circle cx=\"127\" cy=\"82\" r=\"12\"/>\n  </g>\n  <path d=\"m136.81 116.53c.69 26.17-64.11 42-81.52-.73\" style=\"fill:none; stroke: black; stroke-width: 3;\"/>\n</svg>"
  ],
  "numDeployments": 1,
  "solcInputHash": "774a213068d77ec7e9adbb9e967efa37",
  "bytecode": "0x60a06040523480156200001157600080fd5b50604051620039b3380380620039b383398181016040528101906200003791906200064c565b6040518060400160405280600e81526020017f44594e414d49434e4654204e66740000000000000000000000000000000000008152506040518060400160405280600381526020017f44534e00000000000000000000000000000000000000000000000000000000008152508160009080519060200190620000bb9291906200039a565b508060019080519060200190620000d49291906200039a565b5050508273ffffffffffffffffffffffffffffffffffffffff1660808173ffffffffffffffffffffffffffffffffffffffff1681525050600060068190555062000124826200016e60201b60201c565b600790805190602001906200013b9291906200039a565b506200014d816200016e60201b60201c565b60089080519060200190620001649291906200039a565b5050505062000937565b60606000620001a98360405160200162000189919062000733565b6040516020818303038152906040526200020c60201b62000eec1760201c565b90506040518060400160405280601a81526020017f646174613a696d6167652f7376672b786d6c3b6261736536342c00000000000081525081604051602001620001f59291906200074c565b604051602081830303815290604052915050919050565b6060600082511415620002315760405180602001604052806000815250905062000395565b6000604051806060016040528060408152602001620039736040913990506000600360028551620002639190620007ad565b6200026f919062000839565b60046200027d919062000871565b90506000602082620002909190620007ad565b67ffffffffffffffff811115620002ac57620002ab620004de565b5b6040519080825280601f01601f191660200182016040528015620002df5781602001600182028036833780820191505090505b509050818152600183018586518101602084015b8183101562000350576003830192508251603f8160121c168501518253600182019150603f81600c1c168501518253600182019150603f8160061c168501518253600182019150603f8116850151825360018201915050620002f3565b6003895106600181146200036d57600281146200037e5762000389565b613d3d60f01b600283035262000389565b603d60f81b60018303525b50505050508093505050505b919050565b828054620003a89062000901565b90600052602060002090601f016020900481019282620003cc576000855562000418565b82601f10620003e757805160ff191683800117855562000418565b8280016001018555821562000418579182015b8281111562000417578251825591602001919060010190620003fa565b5b5090506200042791906200042b565b5090565b5b80821115620004465760008160009055506001016200042c565b5090565b6000604051905090565b600080fd5b600080fd5b600073ffffffffffffffffffffffffffffffffffffffff82169050919050565b60006200048b826200045e565b9050919050565b6200049d816200047e565b8114620004a957600080fd5b50565b600081519050620004bd8162000492565b92915050565b600080fd5b600080fd5b6000601f19601f8301169050919050565b7f4e487b7100000000000000000000000000000000000000000000000000000000600052604160045260246000fd5b6200051882620004cd565b810181811067ffffffffffffffff821117156200053a5762000539620004de565b5b80604052505050565b60006200054f6200044a565b90506200055d82826200050d565b919050565b600067ffffffffffffffff82111562000580576200057f620004de565b5b6200058b82620004cd565b9050602081019050919050565b60005b83811015620005b85780820151818401526020810190506200059b565b83811115620005c8576000848401525b50505050565b6000620005e5620005df8462000562565b62000543565b905082815260208101848484011115620006045762000603620004c8565b5b6200061184828562000598565b509392505050565b600082601f830112620006315762000630620004c3565b5b815162000643848260208601620005ce565b91505092915050565b60008060006060848603121562000668576200066762000454565b5b60006200067886828701620004ac565b935050602084015167ffffffffffffffff8111156200069c576200069b62000459565b5b620006aa8682870162000619565b925050604084015167ffffffffffffffff811115620006ce57620006cd62000459565b5b620006dc8682870162000619565b9150509250925092565b600081519050919050565b600081905092915050565b60006200070982620006e6565b620007158185620006f1565b93506200072781856020860162000598565b80840191505092915050565b6000620007418284620006fc565b915081905092915050565b60006200075a8285620006fc565b9150620007688284620006fc565b91508190509392505050565b6000819050919050565b7f4e487b7100000000000000000000000000000000000000000000000000000000600052601160045260246000fd5b6000620007ba8262000774565b9150620007c78362000774565b9250827fffffffffffffffffffffffffffffffffffffffffffffffffffffffffffffffff03821115620007ff57620007fe6200077e565b5b828201905092915050565b7f4e487b7100000000000000000000000000000000000000000000000000000000600052601260045260246000fd5b6000620008468262000774565b9150620008538362000774565b9250826200086657620008656200080a565b5b828204905092915050565b60006200087e8262000774565b91506200088b8362000774565b9250817fffffffffffffffffffffffffffffffffffffffffffffffffffffffffffffffff0483118215151615620008c757620008c66200077e565b5b828202905092915050565b7f4e487b7100000000000000000000000000000000000000000000000000000000600052602260045260246000fd5b600060028204905060018216806200091a57607f821691505b60208210811415620009315762000930620008d2565b5b50919050565b6080516130196200095a60003960008181610a9f0152610c1a01526130196000f3fe608060405234801561001057600080fd5b50600436106101215760003560e01c80636e02007d116100ad578063a22cb46511610071578063a22cb4651461031c578063b88d4fde14610338578063c87b56dd14610354578063e985e9c514610384578063ed28a122146103b457610121565b80636e02007d1461027457806370a082311461029257806376f6056b146102c257806395d89b41146102e05780639e87a5cd146102fe57610121565b80631e930812116100f45780631e930812146101c057806323b872dd146101dc5780633207d93c146101f857806342842e0e146102285780636352211e1461024457610121565b806301ffc9a71461012657806306fdde0314610156578063081812fc14610174578063095ea7b3146101a4575b600080fd5b610140600480360381019061013b9190611cb7565b6103d2565b60405161014d9190611cff565b60405180910390f35b61015e6104b4565b60405161016b9190611db3565b60405180910390f35b61018e60048036038101906101899190611e0b565b610546565b60405161019b9190611e79565b60405180910390f35b6101be60048036038101906101b99190611ec0565b61058c565b005b6101da60048036038101906101d59190611f36565b6106a4565b005b6101f660048036038101906101f19190611f63565b610721565b005b610212600480360381019061020d91906120eb565b610781565b60405161021f9190611db3565b60405180910390f35b610242600480360381019061023d9190611f63565b61080e565b005b61025e60048036038101906102599190611e0b565b61082e565b60405161026b9190611e79565b60405180910390f35b61027c6108b5565b6040516102899190612143565b60405180910390f35b6102ac60048036038101906102a7919061215e565b6108bf565b6040516102b99190612143565b60405180910390f35b6102ca610977565b6040516102d79190611db3565b60405180910390f35b6102e8610a09565b6040516102f59190611db3565b60405180910390f35b610306610a9b565b60405161031391906121ea565b60405180910390f35b61033660048036038101906103319190612231565b610ac3565b005b610352600480360381019061034d9190612312565b610ad9565b005b61036e60048036038101906103699190611e0b565b610b3b565b60405161037b9190611db3565b60405180910390f35b61039e60048036038101906103999190612395565b610dc6565b6040516103ab9190611cff565b60405180910390f35b6103bc610e5a565b6040516103c99190611db3565b60405180910390f35b60007f80ac58cd000000000000000000000000000000000000000000000000000000007bffffffffffffffffffffffffffffffffffffffffffffffffffffffff1916827bffffffffffffffffffffffffffffffffffffffffffffffffffffffff1916148061049d57507f5b5e139f000000000000000000000000000000000000000000000000000000007bffffffffffffffffffffffffffffffffffffffffffffffffffffffff1916827bffffffffffffffffffffffffffffffffffffffffffffffffffffffff1916145b806104ad57506104ac82611065565b5b9050919050565b6060600080546104c390612404565b80601f01602080910402602001604051908101604052809291908181526020018280546104ef90612404565b801561053c5780601f106105115761010080835404028352916020019161053c565b820191906000526020600020905b81548152906001019060200180831161051f57829003601f168201915b5050505050905090565b6000610551826110cf565b6004600083815260200190815260200160002060009054906101000a900473ffffffffffffffffffffffffffffffffffffffff169050919050565b60006105978261082e565b90508073ffffffffffffffffffffffffffffffffffffffff168373ffffffffffffffffffffffffffffffffffffffff161415610608576040517f08c379a00000000000000000000000000000000000000000000000000000000081526004016105ff906124a8565b60405180910390fd5b8073ffffffffffffffffffffffffffffffffffffffff1661062761111a565b73ffffffffffffffffffffffffffffffffffffffff16148061065657506106558161065061111a565b610dc6565b5b610695576040517f08c379a000000000000000000000000000000000000000000000000000000000815260040161068c9061253a565b60405180910390fd5b61069f8383611122565b505050565b60006006549050600660008154809291906106be90612589565b91905055508160096000838152602001908152602001600020819055506106e533826111db565b807f51e67edca96a8e375a3b7ab6640aee9013f7fb40776849f5cc0b0fd6212515638360405161071591906125e1565b60405180910390a25050565b61073261072c61111a565b826111f9565b610771576040517f08c379a00000000000000000000000000000000000000000000000000000000081526004016107689061266e565b60405180910390fd5b61077c83838361128e565b505050565b606060006107ad8360405160200161079991906126ca565b604051602081830303815290604052610eec565b90506040518060400160405280601a81526020017f646174613a696d6167652f7376672b786d6c3b6261736536342c000000000000815250816040516020016107f79291906126e1565b604051602081830303815290604052915050919050565b61082983838360405180602001604052806000815250610ad9565b505050565b60008061083a83611588565b9050600073ffffffffffffffffffffffffffffffffffffffff168173ffffffffffffffffffffffffffffffffffffffff1614156108ac576040517f08c379a00000000000000000000000000000000000000000000000000000000081526004016108a390612751565b60405180910390fd5b80915050919050565b6000600654905090565b60008073ffffffffffffffffffffffffffffffffffffffff168273ffffffffffffffffffffffffffffffffffffffff161415610930576040517f08c379a0000000000000000000000000000000000000000000000000000000008152600401610927906127e3565b60405180910390fd5b600360008373ffffffffffffffffffffffffffffffffffffffff1673ffffffffffffffffffffffffffffffffffffffff168152602001908152602001600020549050919050565b60606008805461098690612404565b80601f01602080910402602001604051908101604052809291908181526020018280546109b290612404565b80156109ff5780601f106109d4576101008083540402835291602001916109ff565b820191906000526020600020905b8154815290600101906020018083116109e257829003601f168201915b5050505050905090565b606060018054610a1890612404565b80601f0160208091040260200160405190810160405280929190818152602001828054610a4490612404565b8015610a915780601f10610a6657610100808354040283529160200191610a91565b820191906000526020600020905b815481529060010190602001808311610a7457829003601f168201915b5050505050905090565b60007f0000000000000000000000000000000000000000000000000000000000000000905090565b610ad5610ace61111a565b83836115c5565b5050565b610aea610ae461111a565b836111f9565b610b29576040517f08c379a0000000000000000000000000000000000000000000000000000000008152600401610b209061266e565b60405180910390fd5b610b3584848484611732565b50505050565b6060610b468261178e565b610b8757816040517f8c2220b4000000000000000000000000000000000000000000000000000000008152600401610b7e9190612143565b60405180910390fd5b600060078054610b9690612404565b80601f0160208091040260200160405190810160405280929190818152602001828054610bc290612404565b8015610c0f5780601f10610be457610100808354040283529160200191610c0f565b820191906000526020600020905b815481529060010190602001808311610bf257829003601f168201915b5050505050905060007f000000000000000000000000000000000000000000000000000000000000000073ffffffffffffffffffffffffffffffffffffffff1663feaf968c6040518163ffffffff1660e01b815260040160a06040518083038186803b158015610c7e57600080fd5b505afa158015610c92573d6000803e3d6000fd5b505050506040513d601f19601f82011682018060405250810190610cb6919061286f565b50505091505060096000858152602001908152602001600020548112610d645760088054610ce390612404565b80601f0160208091040260200160405190810160405280929190818152602001828054610d0f90612404565b8015610d5c5780601f10610d3157610100808354040283529160200191610d5c565b820191906000526020600020905b815481529060010190602001808311610d3f57829003601f168201915b505050505091505b610d6c6117cf565b610d9d610d776104b4565b84604051602001610d89929190612a66565b604051602081830303815290604052610eec565b604051602001610dae9291906126e1565b60405160208183030381529060405292505050919050565b6000600560008473ffffffffffffffffffffffffffffffffffffffff1673ffffffffffffffffffffffffffffffffffffffff16815260200190815260200160002060008373ffffffffffffffffffffffffffffffffffffffff1673ffffffffffffffffffffffffffffffffffffffff16815260200190815260200160002060009054906101000a900460ff16905092915050565b606060078054610e6990612404565b80601f0160208091040260200160405190810160405280929190818152602001828054610e9590612404565b8015610ee25780601f10610eb757610100808354040283529160200191610ee2565b820191906000526020600020905b815481529060010190602001808311610ec557829003601f168201915b5050505050905090565b6060600082511415610f0f57604051806020016040528060008152509050611060565b6000604051806060016040528060408152602001612fa46040913990506000600360028551610f3e9190612ab6565b610f489190612b3b565b6004610f549190612b6c565b90506000602082610f659190612ab6565b67ffffffffffffffff811115610f7e57610f7d611fc0565b5b6040519080825280601f01601f191660200182016040528015610fb05781602001600182028036833780820191505090505b509050818152600183018586518101602084015b8183101561101f576003830192508251603f8160121c168501518253600182019150603f81600c1c168501518253600182019150603f8160061c168501518253600182019150603f8116850151825360018201915050610fc4565b600389510660018114611039576002811461104957611054565b613d3d60f01b6002830352611054565b603d60f81b60018303525b50505050508093505050505b919050565b60007f01ffc9a7000000000000000000000000000000000000000000000000000000007bffffffffffffffffffffffffffffffffffffffffffffffffffffffff1916827bffffffffffffffffffffffffffffffffffffffffffffffffffffffff1916149050919050565b6110d88161178e565b611117576040517f08c379a000000000000000000000000000000000000000000000000000000000815260040161110e90612751565b60405180910390fd5b50565b600033905090565b816004600083815260200190815260200160002060006101000a81548173ffffffffffffffffffffffffffffffffffffffff021916908373ffffffffffffffffffffffffffffffffffffffff160217905550808273ffffffffffffffffffffffffffffffffffffffff166111958361082e565b73ffffffffffffffffffffffffffffffffffffffff167f8c5be1e5ebec7d5bd14f71427d1e84f3dd0314c0f7b2291e5b200ac8c7c3b92560405160405180910390a45050565b6111f582826040518060200160405280600081525061180c565b5050565b6000806112058361082e565b90508073ffffffffffffffffffffffffffffffffffffffff168473ffffffffffffffffffffffffffffffffffffffff16148061124757506112468185610dc6565b5b8061128557508373ffffffffffffffffffffffffffffffffffffffff1661126d84610546565b73ffffffffffffffffffffffffffffffffffffffff16145b91505092915050565b8273ffffffffffffffffffffffffffffffffffffffff166112ae8261082e565b73ffffffffffffffffffffffffffffffffffffffff1614611304576040517f08c379a00000000000000000000000000000000000000000000000000000000081526004016112fb90612c38565b60405180910390fd5b600073ffffffffffffffffffffffffffffffffffffffff168273ffffffffffffffffffffffffffffffffffffffff161415611374576040517f08c379a000000000000000000000000000000000000000000000000000000000815260040161136b90612cca565b60405180910390fd5b6113818383836001611867565b8273ffffffffffffffffffffffffffffffffffffffff166113a18261082e565b73ffffffffffffffffffffffffffffffffffffffff16146113f7576040517f08c379a00000000000000000000000000000000000000000000000000000000081526004016113ee90612c38565b60405180910390fd5b6004600082815260200190815260200160002060006101000a81549073ffffffffffffffffffffffffffffffffffffffff02191690556001600360008573ffffffffffffffffffffffffffffffffffffffff1673ffffffffffffffffffffffffffffffffffffffff168152602001908152602001600020600082825403925050819055506001600360008473ffffffffffffffffffffffffffffffffffffffff1673ffffffffffffffffffffffffffffffffffffffff16815260200190815260200160002060008282540192505081905550816002600083815260200190815260200160002060006101000a81548173ffffffffffffffffffffffffffffffffffffffff021916908373ffffffffffffffffffffffffffffffffffffffff160217905550808273ffffffffffffffffffffffffffffffffffffffff168473ffffffffffffffffffffffffffffffffffffffff167fddf252ad1be2c89b69c2b068fc378daa952ba7f163c4a11628f55a4df523b3ef60405160405180910390a4611583838383600161186d565b505050565b60006002600083815260200190815260200160002060009054906101000a900473ffffffffffffffffffffffffffffffffffffffff169050919050565b8173ffffffffffffffffffffffffffffffffffffffff168373ffffffffffffffffffffffffffffffffffffffff161415611634576040517f08c379a000000000000000000000000000000000000000000000000000000000815260040161162b90612d36565b60405180910390fd5b80600560008573ffffffffffffffffffffffffffffffffffffffff1673ffffffffffffffffffffffffffffffffffffffff16815260200190815260200160002060008473ffffffffffffffffffffffffffffffffffffffff1673ffffffffffffffffffffffffffffffffffffffff16815260200190815260200160002060006101000a81548160ff0219169083151502179055508173ffffffffffffffffffffffffffffffffffffffff168373ffffffffffffffffffffffffffffffffffffffff167f17307eab39ab6107e8899845ad3d59bd9653f200f220920489ca2b5937696c31836040516117259190611cff565b60405180910390a3505050565b61173d84848461128e565b61174984848484611873565b611788576040517f08c379a000000000000000000000000000000000000000000000000000000000815260040161177f90612dc8565b60405180910390fd5b50505050565b60008073ffffffffffffffffffffffffffffffffffffffff166117b083611588565b73ffffffffffffffffffffffffffffffffffffffff1614159050919050565b60606040518060400160405280601d81526020017f646174613a6170706c69636174696f6e2f6a736f6e3b6261736536342c000000815250905090565b6118168383611a0a565b6118236000848484611873565b611862576040517f08c379a000000000000000000000000000000000000000000000000000000000815260040161185990612dc8565b60405180910390fd5b505050565b50505050565b50505050565b60006118948473ffffffffffffffffffffffffffffffffffffffff16611c28565b156119fd578373ffffffffffffffffffffffffffffffffffffffff1663150b7a026118bd61111a565b8786866040518563ffffffff1660e01b81526004016118df9493929190612e3d565b602060405180830381600087803b1580156118f957600080fd5b505af192505050801561192a57506040513d601f19601f820116820180604052508101906119279190612e9e565b60015b6119ad573d806000811461195a576040519150601f19603f3d011682016040523d82523d6000602084013e61195f565b606091505b506000815114156119a5576040517f08c379a000000000000000000000000000000000000000000000000000000000815260040161199c90612dc8565b60405180910390fd5b805181602001fd5b63150b7a0260e01b7bffffffffffffffffffffffffffffffffffffffffffffffffffffffff1916817bffffffffffffffffffffffffffffffffffffffffffffffffffffffff191614915050611a02565b600190505b949350505050565b600073ffffffffffffffffffffffffffffffffffffffff168273ffffffffffffffffffffffffffffffffffffffff161415611a7a576040517f08c379a0000000000000000000000000000000000000000000000000000000008152600401611a7190612f17565b60405180910390fd5b611a838161178e565b15611ac3576040517f08c379a0000000000000000000000000000000000000000000000000000000008152600401611aba90612f83565b60405180910390fd5b611ad1600083836001611867565b611ada8161178e565b15611b1a576040517f08c379a0000000000000000000000000000000000000000000000000000000008152600401611b1190612f83565b60405180910390fd5b6001600360008473ffffffffffffffffffffffffffffffffffffffff1673ffffffffffffffffffffffffffffffffffffffff16815260200190815260200160002060008282540192505081905550816002600083815260200190815260200160002060006101000a81548173ffffffffffffffffffffffffffffffffffffffff021916908373ffffffffffffffffffffffffffffffffffffffff160217905550808273ffffffffffffffffffffffffffffffffffffffff16600073ffffffffffffffffffffffffffffffffffffffff167fddf252ad1be2c89b69c2b068fc378daa952ba7f163c4a11628f55a4df523b3ef60405160405180910390a4611c2460008383600161186d565b5050565b6000808273ffffffffffffffffffffffffffffffffffffffff163b119050919050565b6000604051905090565b600080fd5b600080fd5b60007fffffffff0000000000000000000000000000000000000000000000000000000082169050919050565b611c9481611c5f565b8114611c9f57600080fd5b50565b600081359050611cb181611c8b565b92915050565b600060208284031215611ccd57611ccc611c55565b5b6000611cdb84828501611ca2565b91505092915050565b60008115159050919050565b611cf981611ce4565b82525050565b6000602082019050611d146000830184611cf0565b92915050565b600081519050919050565b600082825260208201905092915050565b60005b83811015611d54578082015181840152602081019050611d39565b83811115611d63576000848401525b50505050565b6000601f19601f8301169050919050565b6000611d8582611d1a565b611d8f8185611d25565b9350611d9f818560208601611d36565b611da881611d69565b840191505092915050565b60006020820190508181036000830152611dcd8184611d7a565b905092915050565b6000819050919050565b611de881611dd5565b8114611df357600080fd5b50565b600081359050611e0581611ddf565b92915050565b600060208284031215611e2157611e20611c55565b5b6000611e2f84828501611df6565b91505092915050565b600073ffffffffffffffffffffffffffffffffffffffff82169050919050565b6000611e6382611e38565b9050919050565b611e7381611e58565b82525050565b6000602082019050611e8e6000830184611e6a565b92915050565b611e9d81611e58565b8114611ea857600080fd5b50565b600081359050611eba81611e94565b92915050565b60008060408385031215611ed757611ed6611c55565b5b6000611ee585828601611eab565b9250506020611ef685828601611df6565b9150509250929050565b6000819050919050565b611f1381611f00565b8114611f1e57600080fd5b50565b600081359050611f3081611f0a565b92915050565b600060208284031215611f4c57611f4b611c55565b5b6000611f5a84828501611f21565b91505092915050565b600080600060608486031215611f7c57611f7b611c55565b5b6000611f8a86828701611eab565b9350506020611f9b86828701611eab565b9250506040611fac86828701611df6565b9150509250925092565b600080fd5b600080fd5b7f4e487b7100000000000000000000000000000000000000000000000000000000600052604160045260246000fd5b611ff882611d69565b810181811067ffffffffffffffff8211171561201757612016611fc0565b5b80604052505050565b600061202a611c4b565b90506120368282611fef565b919050565b600067ffffffffffffffff82111561205657612055611fc0565b5b61205f82611d69565b9050602081019050919050565b82818337600083830152505050565b600061208e6120898461203b565b612020565b9050828152602081018484840111156120aa576120a9611fbb565b5b6120b584828561206c565b509392505050565b600082601f8301126120d2576120d1611fb6565b5b81356120e284826020860161207b565b91505092915050565b60006020828403121561210157612100611c55565b5b600082013567ffffffffffffffff81111561211f5761211e611c5a565b5b61212b848285016120bd565b91505092915050565b61213d81611dd5565b82525050565b60006020820190506121586000830184612134565b92915050565b60006020828403121561217457612173611c55565b5b600061218284828501611eab565b91505092915050565b6000819050919050565b60006121b06121ab6121a684611e38565b61218b565b611e38565b9050919050565b60006121c282612195565b9050919050565b60006121d4826121b7565b9050919050565b6121e4816121c9565b82525050565b60006020820190506121ff60008301846121db565b92915050565b61220e81611ce4565b811461221957600080fd5b50565b60008135905061222b81612205565b92915050565b6000806040838503121561224857612247611c55565b5b600061225685828601611eab565b92505060206122678582860161221c565b9150509250929050565b600067ffffffffffffffff82111561228c5761228b611fc0565b5b61229582611d69565b9050602081019050919050565b60006122b56122b084612271565b612020565b9050828152602081018484840111156122d1576122d0611fbb565b5b6122dc84828561206c565b509392505050565b600082601f8301126122f9576122f8611fb6565b5b81356123098482602086016122a2565b91505092915050565b6000806000806080858703121561232c5761232b611c55565b5b600061233a87828801611eab565b945050602061234b87828801611eab565b935050604061235c87828801611df6565b925050606085013567ffffffffffffffff81111561237d5761237c611c5a565b5b612389878288016122e4565b91505092959194509250565b600080604083850312156123ac576123ab611c55565b5b60006123ba85828601611eab565b92505060206123cb85828601611eab565b9150509250929050565b7f4e487b7100000000000000000000000000000000000000000000000000000000600052602260045260246000fd5b6000600282049050600182168061241c57607f821691505b602082108114156124305761242f6123d5565b5b50919050565b7f4552433732313a20617070726f76616c20746f2063757272656e74206f776e6560008201527f7200000000000000000000000000000000000000000000000000000000000000602082015250565b6000612492602183611d25565b915061249d82612436565b604082019050919050565b600060208201905081810360008301526124c181612485565b9050919050565b7f4552433732313a20617070726f76652063616c6c6572206973206e6f7420746f60008201527f6b656e206f776e6572206f7220617070726f76656420666f7220616c6c000000602082015250565b6000612524603d83611d25565b915061252f826124c8565b604082019050919050565b6000602082019050818103600083015261255381612517565b9050919050565b7f4e487b7100000000000000000000000000000000000000000000000000000000600052601160045260246000fd5b600061259482611dd5565b91507fffffffffffffffffffffffffffffffffffffffffffffffffffffffffffffffff8214156125c7576125c661255a565b5b600182019050919050565b6125db81611f00565b82525050565b60006020820190506125f660008301846125d2565b92915050565b7f4552433732313a2063616c6c6572206973206e6f7420746f6b656e206f776e6560008201527f72206f7220617070726f76656400000000000000000000000000000000000000602082015250565b6000612658602d83611d25565b9150612663826125fc565b604082019050919050565b600060208201905081810360008301526126878161264b565b9050919050565b600081905092915050565b60006126a482611d1a565b6126ae818561268e565b93506126be818560208601611d36565b80840191505092915050565b60006126d68284612699565b915081905092915050565b60006126ed8285612699565b91506126f98284612699565b91508190509392505050565b7f4552433732313a20696e76616c696420746f6b656e2049440000000000000000600082015250565b600061273b601883611d25565b915061274682612705565b602082019050919050565b6000602082019050818103600083015261276a8161272e565b9050919050565b7f4552433732313a2061646472657373207a65726f206973206e6f74206120766160008201527f6c6964206f776e65720000000000000000000000000000000000000000000000602082015250565b60006127cd602983611d25565b91506127d882612771565b604082019050919050565b600060208201905081810360008301526127fc816127c0565b9050919050565b600069ffffffffffffffffffff82169050919050565b61282281612803565b811461282d57600080fd5b50565b60008151905061283f81612819565b92915050565b60008151905061285481611f0a565b92915050565b60008151905061286981611ddf565b92915050565b600080600080600060a0868803121561288b5761288a611c55565b5b600061289988828901612830565b95505060206128aa88828901612845565b94505060406128bb8882890161285a565b93505060606128cc8882890161285a565b92505060806128dd88828901612830565b9150509295509295909350565b7f7b226e616d65223a220000000000000000000000000000000000000000000000600082015250565b600061292060098361268e565b915061292b826128ea565b600982019050919050565b7f222c20226465736372697074696f6e223a226e6674206368616e67657320776960008201527f7468207072696365206f6620455448222c000000000000000000000000000000602082015250565b600061299260318361268e565b915061299d82612936565b603182019050919050565b7f2261747472696275746573223a5b7b2274726169745f74797065223a2263757460008201527f656e657373222c2276616c7565223a3130307d5d2c22696d616765223a220000602082015250565b6000612a04603e8361268e565b9150612a0f826129a8565b603e82019050919050565b7f227d000000000000000000000000000000000000000000000000000000000000600082015250565b6000612a5060028361268e565b9150612a5b82612a1a565b600282019050919050565b6000612a7182612913565b9150612a7d8285612699565b9150612a8882612985565b9150612a93826129f7565b9150612a9f8284612699565b9150612aaa82612a43565b91508190509392505050565b6000612ac182611dd5565b9150612acc83611dd5565b9250827fffffffffffffffffffffffffffffffffffffffffffffffffffffffffffffffff03821115612b0157612b0061255a565b5b828201905092915050565b7f4e487b7100000000000000000000000000000000000000000000000000000000600052601260045260246000fd5b6000612b4682611dd5565b9150612b5183611dd5565b925082612b6157612b60612b0c565b5b828204905092915050565b6000612b7782611dd5565b9150612b8283611dd5565b9250817fffffffffffffffffffffffffffffffffffffffffffffffffffffffffffffffff0483118215151615612bbb57612bba61255a565b5b828202905092915050565b7f4552433732313a207472616e736665722066726f6d20696e636f72726563742060008201527f6f776e6572000000000000000000000000000000000000000000000000000000602082015250565b6000612c22602583611d25565b9150612c2d82612bc6565b604082019050919050565b60006020820190508181036000830152612c5181612c15565b9050919050565b7f4552433732313a207472616e7366657220746f20746865207a65726f2061646460008201527f7265737300000000000000000000000000000000000000000000000000000000602082015250565b6000612cb4602483611d25565b9150612cbf82612c58565b604082019050919050565b60006020820190508181036000830152612ce381612ca7565b9050919050565b7f4552433732313a20617070726f766520746f2063616c6c657200000000000000600082015250565b6000612d20601983611d25565b9150612d2b82612cea565b602082019050919050565b60006020820190508181036000830152612d4f81612d13565b9050919050565b7f4552433732313a207472616e7366657220746f206e6f6e20455243373231526560008201527f63656976657220696d706c656d656e7465720000000000000000000000000000602082015250565b6000612db2603283611d25565b9150612dbd82612d56565b604082019050919050565b60006020820190508181036000830152612de181612da5565b9050919050565b600081519050919050565b600082825260208201905092915050565b6000612e0f82612de8565b612e198185612df3565b9350612e29818560208601611d36565b612e3281611d69565b840191505092915050565b6000608082019050612e526000830187611e6a565b612e5f6020830186611e6a565b612e6c6040830185612134565b8181036060830152612e7e8184612e04565b905095945050505050565b600081519050612e9881611c8b565b92915050565b600060208284031215612eb457612eb3611c55565b5b6000612ec284828501612e89565b91505092915050565b7f4552433732313a206d696e7420746f20746865207a65726f2061646472657373600082015250565b6000612f01602083611d25565b9150612f0c82612ecb565b602082019050919050565b60006020820190508181036000830152612f3081612ef4565b9050919050565b7f4552433732313a20746f6b656e20616c7265616479206d696e74656400000000600082015250565b6000612f6d601c83611d25565b9150612f7882612f37565b602082019050919050565b60006020820190508181036000830152612f9c81612f60565b905091905056fe4142434445464748494a4b4c4d4e4f505152535455565758595a6162636465666768696a6b6c6d6e6f707172737475767778797a303132333435363738392b2fa2646970667358221220d3d44c5637a66ee54f0afcff651fc4615141a7ee295937a6faa24b6efc223e2f64736f6c634300080900334142434445464748494a4b4c4d4e4f505152535455565758595a6162636465666768696a6b6c6d6e6f707172737475767778797a303132333435363738392b2f",
  "devdoc": {
    "kind": "dev",
    "methods": {
      "approve(address,uint256)": {
        "details": "See {IERC721-approve}."
      },
      "balanceOf(address)": {
        "details": "See {IERC721-balanceOf}."
      },
      "getApproved(uint256)": {
        "details": "See {IERC721-getApproved}."
      },
      "isApprovedForAll(address,address)": {
        "details": "See {IERC721-isApprovedForAll}."
      },
      "name()": {
        "details": "See {IERC721Metadata-name}."
      },
      "ownerOf(uint256)": {
        "details": "See {IERC721-ownerOf}."
      },
      "safeTransferFrom(address,address,uint256)": {
        "details": "See {IERC721-safeTransferFrom}."
      },
      "safeTransferFrom(address,address,uint256,bytes)": {
        "details": "See {IERC721-safeTransferFrom}."
      },
      "setApprovalForAll(address,bool)": {
        "details": "See {IERC721-setApprovalForAll}."
      },
      "supportsInterface(bytes4)": {
        "details": "See {IERC165-supportsInterface}."
      },
      "symbol()": {
        "details": "See {IERC721Metadata-symbol}."
      },
      "tokenURI(uint256)": {
        "details": "See {IERC721Metadata-tokenURI}."
      },
      "transferFrom(address,address,uint256)": {
        "details": "See {IERC721-transferFrom}."
      }
    },
    "version": 1
  },
  "userdoc": {
    "kind": "user",
    "methods": {},
    "version": 1
  },
  "storageLayout": {
    "storage": [
      {
        "astId": 1324,
        "contract": "contracts/DynamicNft.sol:DynamicNft",
        "label": "_name",
        "offset": 0,
        "slot": "0",
        "type": "t_string_storage"
      },
      {
        "astId": 1326,
        "contract": "contracts/DynamicNft.sol:DynamicNft",
        "label": "_symbol",
        "offset": 0,
        "slot": "1",
        "type": "t_string_storage"
      },
      {
        "astId": 1330,
        "contract": "contracts/DynamicNft.sol:DynamicNft",
        "label": "_owners",
        "offset": 0,
        "slot": "2",
        "type": "t_mapping(t_uint256,t_address)"
      },
      {
        "astId": 1334,
        "contract": "contracts/DynamicNft.sol:DynamicNft",
        "label": "_balances",
        "offset": 0,
        "slot": "3",
        "type": "t_mapping(t_address,t_uint256)"
      },
      {
        "astId": 1338,
        "contract": "contracts/DynamicNft.sol:DynamicNft",
        "label": "_tokenApprovals",
        "offset": 0,
        "slot": "4",
        "type": "t_mapping(t_uint256,t_address)"
      },
      {
        "astId": 1344,
        "contract": "contracts/DynamicNft.sol:DynamicNft",
        "label": "_operatorApprovals",
        "offset": 0,
        "slot": "5",
        "type": "t_mapping(t_address,t_mapping(t_address,t_bool))"
      },
      {
        "astId": 4313,
        "contract": "contracts/DynamicNft.sol:DynamicNft",
        "label": "s_tokenCounter",
        "offset": 0,
        "slot": "6",
        "type": "t_uint256"
      },
      {
        "astId": 4315,
        "contract": "contracts/DynamicNft.sol:DynamicNft",
        "label": "i_lowImageUri",
        "offset": 0,
        "slot": "7",
        "type": "t_string_storage"
      },
      {
        "astId": 4317,
        "contract": "contracts/DynamicNft.sol:DynamicNft",
        "label": "i_highImageUri",
        "offset": 0,
        "slot": "8",
        "type": "t_string_storage"
      },
      {
        "astId": 4327,
        "contract": "contracts/DynamicNft.sol:DynamicNft",
        "label": "tokeninToHighValue",
        "offset": 0,
        "slot": "9",
        "type": "t_mapping(t_uint256,t_int256)"
      }
    ],
    "types": {
      "t_address": {
        "encoding": "inplace",
        "label": "address",
        "numberOfBytes": "20"
      },
      "t_bool": {
        "encoding": "inplace",
        "label": "bool",
        "numberOfBytes": "1"
      },
      "t_int256": {
        "encoding": "inplace",
        "label": "int256",
        "numberOfBytes": "32"
      },
      "t_mapping(t_address,t_bool)": {
        "encoding": "mapping",
        "key": "t_address",
        "label": "mapping(address => bool)",
        "numberOfBytes": "32",
        "value": "t_bool"
      },
      "t_mapping(t_address,t_mapping(t_address,t_bool))": {
        "encoding": "mapping",
        "key": "t_address",
        "label": "mapping(address => mapping(address => bool))",
        "numberOfBytes": "32",
        "value": "t_mapping(t_address,t_bool)"
      },
      "t_mapping(t_address,t_uint256)": {
        "encoding": "mapping",
        "key": "t_address",
        "label": "mapping(address => uint256)",
        "numberOfBytes": "32",
        "value": "t_uint256"
      },
      "t_mapping(t_uint256,t_address)": {
        "encoding": "mapping",
        "key": "t_uint256",
        "label": "mapping(uint256 => address)",
        "numberOfBytes": "32",
        "value": "t_address"
      },
      "t_mapping(t_uint256,t_int256)": {
        "encoding": "mapping",
        "key": "t_uint256",
        "label": "mapping(uint256 => int256)",
        "numberOfBytes": "32",
        "value": "t_int256"
      },
      "t_string_storage": {
        "encoding": "bytes",
        "label": "string",
        "numberOfBytes": "32"
      },
      "t_uint256": {
        "encoding": "inplace",
        "label": "uint256",
        "numberOfBytes": "32"
      }
    }
  }
}