{
  "address": "0xea4909510eD80Cb0A84b34670424825Dc493d001",
  "abi": [
    {
      "inputs": [
        {
          "internalType": "address",
          "name": "vrfCoordinatorV2",
          "type": "address"
        },
        {
          "internalType": "uint64",
          "name": "subscriptionId",
          "type": "uint64"
        },
        {
          "internalType": "bytes32",
          "name": "gasLane",
          "type": "bytes32"
        },
        {
          "internalType": "uint32",
          "name": "callbackGasLimit",
          "type": "uint32"
        },
        {
          "internalType": "string[3]",
          "name": "dogTokenUris",
          "type": "string[3]"
        },
        {
          "internalType": "uint256",
          "name": "mintFee",
          "type": "uint256"
        }
      ],
      "stateMutability": "nonpayable",
      "type": "constructor"
    },
    {
      "inputs": [
        {
          "internalType": "address",
          "name": "have",
          "type": "address"
        },
        {
          "internalType": "address",
          "name": "want",
          "type": "address"
        }
      ],
      "name": "OnlyCoordinatorCanFulfill",
      "type": "error"
    },
    {
      "inputs": [],
      "name": "RandomIpfsNft__AlreadyInitalized",
      "type": "error"
    },
    {
      "inputs": [],
      "name": "RandomIpfsNft__NeedMoreETHSent",
      "type": "error"
    },
    {
      "inputs": [],
      "name": "RandomIpfsNft__RangeOutOfBounds",
      "type": "error"
    },
    {
      "inputs": [],
      "name": "RandomIpfsNft__TransferFailed",
      "type": "error"
    },
    {
      "anonymous": false,
      "inputs": [
        {
          "indexed": true,
          "internalType": "address",
          "name": "owner",
          "type": "address"
        },
        {
          "indexed": true,
          "internalType": "address",
          "name": "approved",
          "type": "address"
        },
        {
          "indexed": true,
          "internalType": "uint256",
          "name": "tokenId",
          "type": "uint256"
        }
      ],
      "name": "Approval",
      "type": "event"
    },
    {
      "anonymous": false,
      "inputs": [
        {
          "indexed": true,
          "internalType": "address",
          "name": "owner",
          "type": "address"
        },
        {
          "indexed": true,
          "internalType": "address",
          "name": "operator",
          "type": "address"
        },
        {
          "indexed": false,
          "internalType": "bool",
          "name": "approved",
          "type": "bool"
        }
      ],
      "name": "ApprovalForAll",
      "type": "event"
    },
    {
      "anonymous": false,
      "inputs": [
        {
          "indexed": false,
          "internalType": "uint256",
          "name": "_fromTokenId",
          "type": "uint256"
        },
        {
          "indexed": false,
          "internalType": "uint256",
          "name": "_toTokenId",
          "type": "uint256"
        }
      ],
      "name": "BatchMetadataUpdate",
      "type": "event"
    },
    {
      "anonymous": false,
      "inputs": [
        {
          "indexed": false,
          "internalType": "uint256",
          "name": "_tokenId",
          "type": "uint256"
        }
      ],
      "name": "MetadataUpdate",
      "type": "event"
    },
    {
      "anonymous": false,
      "inputs": [
        {
          "indexed": false,
          "internalType": "enum RandomIpfsNft.Breed",
          "name": "dogBreed",
          "type": "uint8"
        },
        {
          "indexed": false,
          "internalType": "address",
          "name": "minter",
          "type": "address"
        }
      ],
      "name": "NftMinted",
      "type": "event"
    },
    {
      "anonymous": false,
      "inputs": [
        {
          "indexed": true,
          "internalType": "address",
          "name": "previousOwner",
          "type": "address"
        },
        {
          "indexed": true,
          "internalType": "address",
          "name": "newOwner",
          "type": "address"
        }
      ],
      "name": "OwnershipTransferred",
      "type": "event"
    },
    {
      "anonymous": false,
      "inputs": [
        {
          "indexed": true,
          "internalType": "address",
          "name": "from",
          "type": "address"
        },
        {
          "indexed": true,
          "internalType": "address",
          "name": "to",
          "type": "address"
        },
        {
          "indexed": true,
          "internalType": "uint256",
          "name": "tokenId",
          "type": "uint256"
        }
      ],
      "name": "Transfer",
      "type": "event"
    },
    {
      "anonymous": false,
      "inputs": [
        {
          "indexed": true,
          "internalType": "uint256",
          "name": "requestId",
          "type": "uint256"
        },
        {
          "indexed": false,
          "internalType": "address",
          "name": "requester",
          "type": "address"
        }
      ],
      "name": "nftRequested",
      "type": "event"
    },
    {
      "inputs": [
        {
          "internalType": "address",
          "name": "to",
          "type": "address"
        },
        {
          "internalType": "uint256",
          "name": "tokenId",
          "type": "uint256"
        }
      ],
      "name": "approve",
      "outputs": [],
      "stateMutability": "nonpayable",
      "type": "function"
    },
    {
      "inputs": [
        {
          "internalType": "address",
          "name": "owner",
          "type": "address"
        }
      ],
      "name": "balanceOf",
      "outputs": [
        {
          "internalType": "uint256",
          "name": "",
          "type": "uint256"
        }
      ],
      "stateMutability": "view",
      "type": "function"
    },
    {
      "inputs": [
        {
          "internalType": "uint256",
          "name": "tokenId",
          "type": "uint256"
        }
      ],
      "name": "getApproved",
      "outputs": [
        {
          "internalType": "address",
          "name": "",
          "type": "address"
        }
      ],
      "stateMutability": "view",
      "type": "function"
    },
    {
      "inputs": [
        {
          "internalType": "uint256",
          "name": "modedRng",
          "type": "uint256"
        }
      ],
      "name": "getBreedFromModdedRng",
      "outputs": [
        {
          "internalType": "enum RandomIpfsNft.Breed",
          "name": "",
          "type": "uint8"
        }
      ],
      "stateMutability": "pure",
      "type": "function"
    },
    {
      "inputs": [],
      "name": "getChanceArray",
      "outputs": [
        {
          "internalType": "uint256[3]",
          "name": "",
          "type": "uint256[3]"
        }
      ],
      "stateMutability": "pure",
      "type": "function"
    },
    {
      "inputs": [
        {
          "internalType": "uint256",
          "name": "index",
          "type": "uint256"
        }
      ],
      "name": "getDogTokenUris",
      "outputs": [
        {
          "internalType": "string",
          "name": "",
          "type": "string"
        }
      ],
      "stateMutability": "view",
      "type": "function"
    },
    {
      "inputs": [],
      "name": "getInitilaized",
      "outputs": [
        {
          "internalType": "bool",
          "name": "",
          "type": "bool"
        }
      ],
      "stateMutability": "view",
      "type": "function"
    },
    {
      "inputs": [],
      "name": "getMintFee",
      "outputs": [
        {
          "internalType": "uint256",
          "name": "",
          "type": "uint256"
        }
      ],
      "stateMutability": "view",
      "type": "function"
    },
    {
      "inputs": [],
      "name": "getTokenCounter",
      "outputs": [
        {
          "internalType": "uint256",
          "name": "",
          "type": "uint256"
        }
      ],
      "stateMutability": "view",
      "type": "function"
    },
    {
      "inputs": [],
      "name": "i_mintFee",
      "outputs": [
        {
          "internalType": "uint256",
          "name": "",
          "type": "uint256"
        }
      ],
      "stateMutability": "view",
      "type": "function"
    },
    {
      "inputs": [
        {
          "internalType": "address",
          "name": "owner",
          "type": "address"
        },
        {
          "internalType": "address",
          "name": "operator",
          "type": "address"
        }
      ],
      "name": "isApprovedForAll",
      "outputs": [
        {
          "internalType": "bool",
          "name": "",
          "type": "bool"
        }
      ],
      "stateMutability": "view",
      "type": "function"
    },
    {
      "inputs": [],
      "name": "name",
      "outputs": [
        {
          "internalType": "string",
          "name": "",
          "type": "string"
        }
      ],
      "stateMutability": "view",
      "type": "function"
    },
    {
      "inputs": [],
      "name": "owner",
      "outputs": [
        {
          "internalType": "address",
          "name": "",
          "type": "address"
        }
      ],
      "stateMutability": "view",
      "type": "function"
    },
    {
      "inputs": [
        {
          "internalType": "uint256",
          "name": "tokenId",
          "type": "uint256"
        }
      ],
      "name": "ownerOf",
      "outputs": [
        {
          "internalType": "address",
          "name": "",
          "type": "address"
        }
      ],
      "stateMutability": "view",
      "type": "function"
    },
    {
      "inputs": [
        {
          "internalType": "uint256",
          "name": "requestId",
          "type": "uint256"
        },
        {
          "internalType": "uint256[]",
          "name": "randomWords",
          "type": "uint256[]"
        }
      ],
      "name": "rawFulfillRandomWords",
      "outputs": [],
      "stateMutability": "nonpayable",
      "type": "function"
    },
    {
      "inputs": [],
      "name": "renounceOwnership",
      "outputs": [],
      "stateMutability": "nonpayable",
      "type": "function"
    },
    {
      "inputs": [],
      "name": "requestNft",
      "outputs": [
        {
          "internalType": "uint256",
          "name": "requestId",
          "type": "uint256"
        }
      ],
      "stateMutability": "payable",
      "type": "function"
    },
    {
      "inputs": [
        {
          "internalType": "uint256",
          "name": "",
          "type": "uint256"
        }
      ],
      "name": "s_requestIdSender",
      "outputs": [
        {
          "internalType": "address",
          "name": "",
          "type": "address"
        }
      ],
      "stateMutability": "view",
      "type": "function"
    },
    {
      "inputs": [],
      "name": "s_tokenCounter",
      "outputs": [
        {
          "internalType": "uint256",
          "name": "",
          "type": "uint256"
        }
      ],
      "stateMutability": "view",
      "type": "function"
    },
    {
      "inputs": [
        {
          "internalType": "address",
          "name": "from",
          "type": "address"
        },
        {
          "internalType": "address",
          "name": "to",
          "type": "address"
        },
        {
          "internalType": "uint256",
          "name": "tokenId",
          "type": "uint256"
        }
      ],
      "name": "safeTransferFrom",
      "outputs": [],
      "stateMutability": "nonpayable",
      "type": "function"
    },
    {
      "inputs": [
        {
          "internalType": "address",
          "name": "from",
          "type": "address"
        },
        {
          "internalType": "address",
          "name": "to",
          "type": "address"
        },
        {
          "internalType": "uint256",
          "name": "tokenId",
          "type": "uint256"
        },
        {
          "internalType": "bytes",
          "name": "data",
          "type": "bytes"
        }
      ],
      "name": "safeTransferFrom",
      "outputs": [],
      "stateMutability": "nonpayable",
      "type": "function"
    },
    {
      "inputs": [
        {
          "internalType": "address",
          "name": "operator",
          "type": "address"
        },
        {
          "internalType": "bool",
          "name": "approved",
          "type": "bool"
        }
      ],
      "name": "setApprovalForAll",
      "outputs": [],
      "stateMutability": "nonpayable",
      "type": "function"
    },
    {
      "inputs": [
        {
          "internalType": "bytes4",
          "name": "interfaceId",
          "type": "bytes4"
        }
      ],
      "name": "supportsInterface",
      "outputs": [
        {
          "internalType": "bool",
          "name": "",
          "type": "bool"
        }
      ],
      "stateMutability": "view",
      "type": "function"
    },
    {
      "inputs": [],
      "name": "symbol",
      "outputs": [
        {
          "internalType": "string",
          "name": "",
          "type": "string"
        }
      ],
      "stateMutability": "view",
      "type": "function"
    },
    {
      "inputs": [
        {
          "internalType": "uint256",
          "name": "tokenId",
          "type": "uint256"
        }
      ],
      "name": "tokenURI",
      "outputs": [
        {
          "internalType": "string",
          "name": "",
          "type": "string"
        }
      ],
      "stateMutability": "view",
      "type": "function"
    },
    {
      "inputs": [
        {
          "internalType": "address",
          "name": "from",
          "type": "address"
        },
        {
          "internalType": "address",
          "name": "to",
          "type": "address"
        },
        {
          "internalType": "uint256",
          "name": "tokenId",
          "type": "uint256"
        }
      ],
      "name": "transferFrom",
      "outputs": [],
      "stateMutability": "nonpayable",
      "type": "function"
    },
    {
      "inputs": [
        {
          "internalType": "address",
          "name": "newOwner",
          "type": "address"
        }
      ],
      "name": "transferOwnership",
      "outputs": [],
      "stateMutability": "nonpayable",
      "type": "function"
    },
    {
      "inputs": [],
      "name": "withdraw",
      "outputs": [],
      "stateMutability": "nonpayable",
      "type": "function"
    }
  ],
  "transactionHash": "0x13904cb786628a5d8e425aa63d2f073d4dbd7d0323369d30a65c600e0060c685",
  "args": [
    "0x8103B0A8A00be2DDC778e6e7eaa21791Cd364625",
    "3839",
    "0x474e34a077df58807dbe9c96d3c009b23b3c6d0cce433e59bbf5b34f823bc56c",
    500000,
    [
      "ipfs://QmeuwrcHYfp78g75bTFyDQ5CXcdy6d8ofVm67rhpaH5uyL",
      "ipfs://QmP51JZmTFt6d3T1hGrRCxCgrqb7VGirKqsZThm5fPv7WD",
      "ipfs://QmRMyxWmArz1zL39TPEtExjf2hBjxaFnBG7YGNB31gMuNH"
    ],
    "10000000000000000"
  ],
  "numDeployments": 1,
  "solcInputHash": "774a213068d77ec7e9adbb9e967efa37",
  "bytecode": "0x6101406040526000600b60006101000a81548160ff0219169083151502179055503480156200002d57600080fd5b50604051620045b2380380620045b2833981810160405281019062000053919062000891565b6040518060400160405280600981526020017f52616e646f6d4e667400000000000000000000000000000000000000000000008152506040518060400160405280600281526020017f5254000000000000000000000000000000000000000000000000000000000000815250878073ffffffffffffffffffffffffffffffffffffffff1660808173ffffffffffffffffffffffffffffffffffffffff16815250505081600090805190602001906200010d92919062000324565b5080600190805190602001906200012692919062000324565b505050620001496200013d620001dc60201b60201c565b620001e460201b60201c565b8573ffffffffffffffffffffffffffffffffffffffff1660a08173ffffffffffffffffffffffffffffffffffffffff16815250508467ffffffffffffffff1660c08167ffffffffffffffff16815250508360e081815250508263ffffffff166101008163ffffffff1681525050620001c782620002aa60201b60201c565b806101208181525050505050505050620009b1565b600033905090565b6000600760009054906101000a900473ffffffffffffffffffffffffffffffffffffffff16905081600760006101000a81548173ffffffffffffffffffffffffffffffffffffffff021916908373ffffffffffffffffffffffffffffffffffffffff1602179055508173ffffffffffffffffffffffffffffffffffffffff168173ffffffffffffffffffffffffffffffffffffffff167f8be0079c531659141344cd1fd0a4f28419497f9722a3daafe3b4186f6b6457e060405160405180910390a35050565b600b60009054906101000a900460ff1615620002f2576040517fd6926b8100000000000000000000000000000000000000000000000000000000815260040160405180910390fd5b80600a90600362000305929190620003b5565b506001600b60006101000a81548160ff02191690831515021790555050565b82805462000332906200097b565b90600052602060002090601f016020900481019282620003565760008555620003a2565b82601f106200037157805160ff1916838001178555620003a2565b82800160010185558215620003a2579182015b82811115620003a157825182559160200191906001019062000384565b5b509050620003b191906200041c565b5090565b82805482825590600052602060002090810192821562000409579160200282015b8281111562000408578251829080519060200190620003f792919062000324565b5091602001919060010190620003d6565b5b5090506200041891906200043b565b5090565b5b80821115620004375760008160009055506001016200041d565b5090565b5b808211156200045f576000818162000455919062000463565b506001016200043c565b5090565b50805462000471906200097b565b6000825580601f10620004855750620004a6565b601f016020900490600052602060002090810190620004a591906200041c565b5b50565b6000604051905090565b600080fd5b600080fd5b600073ffffffffffffffffffffffffffffffffffffffff82169050919050565b6000620004ea82620004bd565b9050919050565b620004fc81620004dd565b81146200050857600080fd5b50565b6000815190506200051c81620004f1565b92915050565b600067ffffffffffffffff82169050919050565b620005418162000522565b81146200054d57600080fd5b50565b600081519050620005618162000536565b92915050565b6000819050919050565b6200057c8162000567565b81146200058857600080fd5b50565b6000815190506200059c8162000571565b92915050565b600063ffffffff82169050919050565b620005bd81620005a2565b8114620005c957600080fd5b50565b600081519050620005dd81620005b2565b92915050565b600080fd5b6000601f19601f8301169050919050565b7f4e487b7100000000000000000000000000000000000000000000000000000000600052604160045260246000fd5b6200063382620005e8565b810181811067ffffffffffffffff82111715620006555762000654620005f9565b5b80604052505050565b60006200066a620004a9565b905062000678828262000628565b919050565b600067ffffffffffffffff8211156200069b576200069a620005f9565b5b602082029050919050565b600080fd5b600080fd5b600067ffffffffffffffff821115620006ce57620006cd620005f9565b5b620006d982620005e8565b9050602081019050919050565b60005b8381101562000706578082015181840152602081019050620006e9565b8381111562000716576000848401525b50505050565b6000620007336200072d84620006b0565b6200065e565b905082815260208101848484011115620007525762000751620006ab565b5b6200075f848285620006e6565b509392505050565b600082601f8301126200077f576200077e620005e3565b5b8151620007918482602086016200071c565b91505092915050565b6000620007b1620007ab846200067d565b6200065e565b90508060208402830185811115620007ce57620007cd620006a6565b5b835b818110156200081c57805167ffffffffffffffff811115620007f757620007f6620005e3565b5b80860162000806898262000767565b85526020850194505050602081019050620007d0565b5050509392505050565b600082601f8301126200083e576200083d620005e3565b5b60036200084d8482856200079a565b91505092915050565b6000819050919050565b6200086b8162000856565b81146200087757600080fd5b50565b6000815190506200088b8162000860565b92915050565b60008060008060008060c08789031215620008b157620008b0620004b3565b5b6000620008c189828a016200050b565b9650506020620008d489828a0162000550565b9550506040620008e789828a016200058b565b9450506060620008fa89828a01620005cc565b935050608087015167ffffffffffffffff8111156200091e576200091d620004b8565b5b6200092c89828a0162000826565b92505060a06200093f89828a016200087a565b9150509295509295509295565b7f4e487b7100000000000000000000000000000000000000000000000000000000600052602260045260246000fd5b600060028204905060018216806200099457607f821691505b60208210811415620009ab57620009aa6200094c565b5b50919050565b60805160a05160c05160e0516101005161012051613b9c62000a16600039600081816109ff01528181610dc40152610f8a01526000611064015260006110200152600061104101526000610fe401526000818161093f01526109930152613b9c6000f3fe6080604052600436106101b75760003560e01c80636352211e116100ec578063a22cb4651161008a578063b88d4fde11610064578063b88d4fde14610603578063c87b56dd1461062c578063e985e9c514610669578063f2fde38b146106a6576101b7565b8063a22cb4651461057f578063a51cccf3146105a8578063aa152491146105e5576101b7565b8063715018a6116100c6578063715018a6146104e75780637a5caab3146104fe5780638da5cb5b1461052957806395d89b4114610554576101b7565b80636352211e146104425780636e02007d1461047f57806370a08231146104aa576101b7565b806323895e79116101595780633ccfd60b116101335780633ccfd60b1461039a57806342842e0e146103b157806346a2733e146103da5780635dacf5f414610417576101b7565b806323895e791461030957806323b872dd146103345780633af259751461035d576101b7565b8063095ea7b311610195578063095ea7b31461026157806309e390f81461028a5780630b21a83b146102b55780631fe543e3146102e0576101b7565b806301ffc9a7146101bc57806306fdde03146101f9578063081812fc14610224575b600080fd5b3480156101c857600080fd5b506101e360048036038101906101de9190612805565b6106cf565b6040516101f0919061284d565b60405180910390f35b34801561020557600080fd5b5061020e610730565b60405161021b9190612901565b60405180910390f35b34801561023057600080fd5b5061024b60048036038101906102469190612959565b6107c2565b60405161025891906129c7565b60405180910390f35b34801561026d57600080fd5b5061028860048036038101906102839190612a0e565b610808565b005b34801561029657600080fd5b5061029f610920565b6040516102ac919061284d565b60405180910390f35b3480156102c157600080fd5b506102ca610937565b6040516102d79190612a5d565b60405180910390f35b3480156102ec57600080fd5b5061030760048036038101906103029190612bc0565b61093d565b005b34801561031557600080fd5b5061031e6109fd565b60405161032b9190612a5d565b60405180910390f35b34801561034057600080fd5b5061035b60048036038101906103569190612c1c565b610a21565b005b34801561036957600080fd5b50610384600480360381019061037f9190612959565b610a81565b6040516103919190612901565b60405180910390f35b3480156103a657600080fd5b506103af610b31565b005b3480156103bd57600080fd5b506103d860048036038101906103d39190612c1c565b610be5565b005b3480156103e657600080fd5b5061040160048036038101906103fc9190612959565b610c05565b60405161040e91906129c7565b60405180910390f35b34801561042357600080fd5b5061042c610c38565b6040516104399190612d1a565b60405180910390f35b34801561044e57600080fd5b5061046960048036038101906104649190612959565b610c63565b60405161047691906129c7565b60405180910390f35b34801561048b57600080fd5b50610494610cea565b6040516104a19190612a5d565b60405180910390f35b3480156104b657600080fd5b506104d160048036038101906104cc9190612d35565b610cf4565b6040516104de9190612a5d565b60405180910390f35b3480156104f357600080fd5b506104fc610dac565b005b34801561050a57600080fd5b50610513610dc0565b6040516105209190612a5d565b60405180910390f35b34801561053557600080fd5b5061053e610de8565b60405161054b91906129c7565b60405180910390f35b34801561056057600080fd5b50610569610e12565b6040516105769190612901565b60405180910390f35b34801561058b57600080fd5b506105a660048036038101906105a19190612d8e565b610ea4565b005b3480156105b457600080fd5b506105cf60048036038101906105ca9190612959565b610eba565b6040516105dc9190612e45565b60405180910390f35b6105ed610f86565b6040516105fa9190612a5d565b60405180910390f35b34801561060f57600080fd5b5061062a60048036038101906106259190612f15565b611186565b005b34801561063857600080fd5b50610653600480360381019061064e9190612959565b6111e8565b6040516106609190612901565b60405180910390f35b34801561067557600080fd5b50610690600480360381019061068b9190612f98565b6112fb565b60405161069d919061284d565b60405180910390f35b3480156106b257600080fd5b506106cd60048036038101906106c89190612d35565b61138f565b005b6000634906490660e01b7bffffffffffffffffffffffffffffffffffffffffffffffffffffffff1916827bffffffffffffffffffffffffffffffffffffffffffffffffffffffff19161480610729575061072882611413565b5b9050919050565b60606000805461073f90613007565b80601f016020809104026020016040519081016040528092919081815260200182805461076b90613007565b80156107b85780601f1061078d576101008083540402835291602001916107b8565b820191906000526020600020905b81548152906001019060200180831161079b57829003601f168201915b5050505050905090565b60006107cd826114f5565b6004600083815260200190815260200160002060009054906101000a900473ffffffffffffffffffffffffffffffffffffffff169050919050565b600061081382610c63565b90508073ffffffffffffffffffffffffffffffffffffffff168373ffffffffffffffffffffffffffffffffffffffff161415610884576040517f08c379a000000000000000000000000000000000000000000000000000000000815260040161087b906130ab565b60405180910390fd5b8073ffffffffffffffffffffffffffffffffffffffff166108a3611540565b73ffffffffffffffffffffffffffffffffffffffff1614806108d257506108d1816108cc611540565b6112fb565b5b610911576040517f08c379a00000000000000000000000000000000000000000000000000000000081526004016109089061313d565b60405180910390fd5b61091b8383611548565b505050565b6000600b60009054906101000a900460ff16905090565b60095481565b7f000000000000000000000000000000000000000000000000000000000000000073ffffffffffffffffffffffffffffffffffffffff163373ffffffffffffffffffffffffffffffffffffffff16146109ef57337f00000000000000000000000000000000000000000000000000000000000000006040517f1cf993f40000000000000000000000000000000000000000000000000000000081526004016109e692919061315d565b60405180910390fd5b6109f98282611601565b5050565b7f000000000000000000000000000000000000000000000000000000000000000081565b610a32610a2c611540565b8261179e565b610a71576040517f08c379a0000000000000000000000000000000000000000000000000000000008152600401610a68906131f8565b60405180910390fd5b610a7c838383611833565b505050565b6060600a8281548110610a9757610a96613218565b5b906000526020600020018054610aac90613007565b80601f0160208091040260200160405190810160405280929190818152602001828054610ad890613007565b8015610b255780601f10610afa57610100808354040283529160200191610b25565b820191906000526020600020905b815481529060010190602001808311610b0857829003601f168201915b50505050509050919050565b610b39611b2d565b600047905060003373ffffffffffffffffffffffffffffffffffffffff1682604051610b6490613278565b60006040518083038185875af1925050503d8060008114610ba1576040519150601f19603f3d011682016040523d82523d6000602084013e610ba6565b606091505b5050905080610be1576040517fca7e25b700000000000000000000000000000000000000000000000000000000815260040160405180910390fd5b5050565b610c0083838360405180602001604052806000815250611186565b505050565b60086020528060005260406000206000915054906101000a900473ffffffffffffffffffffffffffffffffffffffff1681565b610c406126d4565b6040518060600160405280600a8152602001601e81526020016064815250905090565b600080610c6f83611bab565b9050600073ffffffffffffffffffffffffffffffffffffffff168173ffffffffffffffffffffffffffffffffffffffff161415610ce1576040517f08c379a0000000000000000000000000000000000000000000000000000000008152600401610cd8906132d9565b60405180910390fd5b80915050919050565b6000600954905090565b60008073ffffffffffffffffffffffffffffffffffffffff168273ffffffffffffffffffffffffffffffffffffffff161415610d65576040517f08c379a0000000000000000000000000000000000000000000000000000000008152600401610d5c9061336b565b60405180910390fd5b600360008373ffffffffffffffffffffffffffffffffffffffff1673ffffffffffffffffffffffffffffffffffffffff168152602001908152602001600020549050919050565b610db4611b2d565b610dbe6000611be8565b565b60007f0000000000000000000000000000000000000000000000000000000000000000905090565b6000600760009054906101000a900473ffffffffffffffffffffffffffffffffffffffff16905090565b606060018054610e2190613007565b80601f0160208091040260200160405190810160405280929190818152602001828054610e4d90613007565b8015610e9a5780601f10610e6f57610100808354040283529160200191610e9a565b820191906000526020600020905b815481529060010190602001808311610e7d57829003601f168201915b5050505050905090565b610eb6610eaf611540565b8383611cae565b5050565b600080600090506000610ecb610c38565b905060005b6003811015610f4e57828510158015610eff5750818160038110610ef757610ef6613218565b5b602002015185105b15610f2157806002811115610f1757610f16612dce565b5b9350505050610f81565b818160038110610f3457610f33613218565b5b602002015192508080610f46906133ba565b915050610ed0565b506040517f12806c9d00000000000000000000000000000000000000000000000000000000815260040160405180910390fd5b919050565b60007f0000000000000000000000000000000000000000000000000000000000000000341015610fe2576040517fb90f491000000000000000000000000000000000000000000000000000000000815260040160405180910390fd5b7f000000000000000000000000000000000000000000000000000000000000000073ffffffffffffffffffffffffffffffffffffffff16635d3b1d307f00000000000000000000000000000000000000000000000000000000000000007f000000000000000000000000000000000000000000000000000000000000000060037f000000000000000000000000000000000000000000000000000000000000000060016040518663ffffffff1660e01b81526004016110a595949392919061347b565b602060405180830381600087803b1580156110bf57600080fd5b505af11580156110d3573d6000803e3d6000fd5b505050506040513d601f19601f820116820180604052508101906110f791906134e3565b9050336008600083815260200190815260200160002060006101000a81548173ffffffffffffffffffffffffffffffffffffffff021916908373ffffffffffffffffffffffffffffffffffffffff160217905550807fb77d492ca16c0fc7e1a62736b735a9b86bf20f020e61e4be967843f7b36d8b013360405161117b91906129c7565b60405180910390a290565b611197611191611540565b8361179e565b6111d6576040517f08c379a00000000000000000000000000000000000000000000000000000000081526004016111cd906131f8565b60405180910390fd5b6111e284848484611e1b565b50505050565b60606111f3826114f5565b600060066000848152602001908152602001600020805461121390613007565b80601f016020809104026020016040519081016040528092919081815260200182805461123f90613007565b801561128c5780601f106112615761010080835404028352916020019161128c565b820191906000526020600020905b81548152906001019060200180831161126f57829003601f168201915b50505050509050600061129d611e77565b90506000815114156112b35781925050506112f6565b6000825111156112e85780826040516020016112d092919061354c565b604051602081830303815290604052925050506112f6565b6112f184611e8e565b925050505b919050565b6000600560008473ffffffffffffffffffffffffffffffffffffffff1673ffffffffffffffffffffffffffffffffffffffff16815260200190815260200160002060008373ffffffffffffffffffffffffffffffffffffffff1673ffffffffffffffffffffffffffffffffffffffff16815260200190815260200160002060009054906101000a900460ff16905092915050565b611397611b2d565b600073ffffffffffffffffffffffffffffffffffffffff168173ffffffffffffffffffffffffffffffffffffffff161415611407576040517f08c379a00000000000000000000000000000000000000000000000000000000081526004016113fe906135e2565b60405180910390fd5b61141081611be8565b50565b60007f80ac58cd000000000000000000000000000000000000000000000000000000007bffffffffffffffffffffffffffffffffffffffffffffffffffffffff1916827bffffffffffffffffffffffffffffffffffffffffffffffffffffffff191614806114de57507f5b5e139f000000000000000000000000000000000000000000000000000000007bffffffffffffffffffffffffffffffffffffffffffffffffffffffff1916827bffffffffffffffffffffffffffffffffffffffffffffffffffffffff1916145b806114ee57506114ed82611ef6565b5b9050919050565b6114fe81611f60565b61153d576040517f08c379a0000000000000000000000000000000000000000000000000000000008152600401611534906132d9565b60405180910390fd5b50565b600033905090565b816004600083815260200190815260200160002060006101000a81548173ffffffffffffffffffffffffffffffffffffffff021916908373ffffffffffffffffffffffffffffffffffffffff160217905550808273ffffffffffffffffffffffffffffffffffffffff166115bb83610c63565b73ffffffffffffffffffffffffffffffffffffffff167f8c5be1e5ebec7d5bd14f71427d1e84f3dd0314c0f7b2291e5b200ac8c7c3b92560405160405180910390a45050565b60006008600084815260200190815260200160002060009054906101000a900473ffffffffffffffffffffffffffffffffffffffff1690506000600954905060096000815480929190611653906133ba565b919050555060006064846000815181106116705761166f613218565b5b60200260200101516116829190613631565b9050600061168f82610eba565b905061169b8484611fa1565b61175d83600a8360028111156116b4576116b3612dce565b5b815481106116c5576116c4613218565b5b9060005260206000200180546116da90613007565b80601f016020809104026020016040519081016040528092919081815260200182805461170690613007565b80156117535780601f1061172857610100808354040283529160200191611753565b820191906000526020600020905b81548152906001019060200180831161173657829003601f168201915b5050505050611fbf565b7f8a269f26b688e110e9cbd887d163dab35cae678fa353a0292de532c0cac1ecdc818560405161178e929190613662565b60405180910390a1505050505050565b6000806117aa83610c63565b90508073ffffffffffffffffffffffffffffffffffffffff168473ffffffffffffffffffffffffffffffffffffffff1614806117ec57506117eb81856112fb565b5b8061182a57508373ffffffffffffffffffffffffffffffffffffffff16611812846107c2565b73ffffffffffffffffffffffffffffffffffffffff16145b91505092915050565b8273ffffffffffffffffffffffffffffffffffffffff1661185382610c63565b73ffffffffffffffffffffffffffffffffffffffff16146118a9576040517f08c379a00000000000000000000000000000000000000000000000000000000081526004016118a0906136fd565b60405180910390fd5b600073ffffffffffffffffffffffffffffffffffffffff168273ffffffffffffffffffffffffffffffffffffffff161415611919576040517f08c379a00000000000000000000000000000000000000000000000000000000081526004016119109061378f565b60405180910390fd5b611926838383600161206a565b8273ffffffffffffffffffffffffffffffffffffffff1661194682610c63565b73ffffffffffffffffffffffffffffffffffffffff161461199c576040517f08c379a0000000000000000000000000000000000000000000000000000000008152600401611993906136fd565b60405180910390fd5b6004600082815260200190815260200160002060006101000a81549073ffffffffffffffffffffffffffffffffffffffff02191690556001600360008573ffffffffffffffffffffffffffffffffffffffff1673ffffffffffffffffffffffffffffffffffffffff168152602001908152602001600020600082825403925050819055506001600360008473ffffffffffffffffffffffffffffffffffffffff1673ffffffffffffffffffffffffffffffffffffffff16815260200190815260200160002060008282540192505081905550816002600083815260200190815260200160002060006101000a81548173ffffffffffffffffffffffffffffffffffffffff021916908373ffffffffffffffffffffffffffffffffffffffff160217905550808273ffffffffffffffffffffffffffffffffffffffff168473ffffffffffffffffffffffffffffffffffffffff167fddf252ad1be2c89b69c2b068fc378daa952ba7f163c4a11628f55a4df523b3ef60405160405180910390a4611b288383836001612070565b505050565b611b35611540565b73ffffffffffffffffffffffffffffffffffffffff16611b53610de8565b73ffffffffffffffffffffffffffffffffffffffff1614611ba9576040517f08c379a0000000000000000000000000000000000000000000000000000000008152600401611ba0906137fb565b60405180910390fd5b565b60006002600083815260200190815260200160002060009054906101000a900473ffffffffffffffffffffffffffffffffffffffff169050919050565b6000600760009054906101000a900473ffffffffffffffffffffffffffffffffffffffff16905081600760006101000a81548173ffffffffffffffffffffffffffffffffffffffff021916908373ffffffffffffffffffffffffffffffffffffffff1602179055508173ffffffffffffffffffffffffffffffffffffffff168173ffffffffffffffffffffffffffffffffffffffff167f8be0079c531659141344cd1fd0a4f28419497f9722a3daafe3b4186f6b6457e060405160405180910390a35050565b8173ffffffffffffffffffffffffffffffffffffffff168373ffffffffffffffffffffffffffffffffffffffff161415611d1d576040517f08c379a0000000000000000000000000000000000000000000000000000000008152600401611d1490613867565b60405180910390fd5b80600560008573ffffffffffffffffffffffffffffffffffffffff1673ffffffffffffffffffffffffffffffffffffffff16815260200190815260200160002060008473ffffffffffffffffffffffffffffffffffffffff1673ffffffffffffffffffffffffffffffffffffffff16815260200190815260200160002060006101000a81548160ff0219169083151502179055508173ffffffffffffffffffffffffffffffffffffffff168373ffffffffffffffffffffffffffffffffffffffff167f17307eab39ab6107e8899845ad3d59bd9653f200f220920489ca2b5937696c3183604051611e0e919061284d565b60405180910390a3505050565b611e26848484611833565b611e3284848484612076565b611e71576040517f08c379a0000000000000000000000000000000000000000000000000000000008152600401611e68906138f9565b60405180910390fd5b50505050565b606060405180602001604052806000815250905090565b6060611e99826114f5565b6000611ea3611e77565b90506000815111611ec35760405180602001604052806000815250611eee565b80611ecd8461220d565b604051602001611ede92919061354c565b6040516020818303038152906040525b915050919050565b60007f01ffc9a7000000000000000000000000000000000000000000000000000000007bffffffffffffffffffffffffffffffffffffffffffffffffffffffff1916827bffffffffffffffffffffffffffffffffffffffffffffffffffffffff1916149050919050565b60008073ffffffffffffffffffffffffffffffffffffffff16611f8283611bab565b73ffffffffffffffffffffffffffffffffffffffff1614159050919050565b611fbb8282604051806020016040528060008152506122e5565b5050565b611fc882611f60565b612007576040517f08c379a0000000000000000000000000000000000000000000000000000000008152600401611ffe9061398b565b60405180910390fd5b8060066000848152602001908152602001600020908051906020019061202e9291906126f6565b507ff8e1a15aba9398e019f0b49df1a4fde98ee17ae345cb5f6b5e2c27f5033e8ce78260405161205e9190612a5d565b60405180910390a15050565b50505050565b50505050565b60006120978473ffffffffffffffffffffffffffffffffffffffff16612340565b15612200578373ffffffffffffffffffffffffffffffffffffffff1663150b7a026120c0611540565b8786866040518563ffffffff1660e01b81526004016120e29493929190613a00565b602060405180830381600087803b1580156120fc57600080fd5b505af192505050801561212d57506040513d601f19601f8201168201806040525081019061212a9190613a61565b60015b6121b0573d806000811461215d576040519150601f19603f3d011682016040523d82523d6000602084013e612162565b606091505b506000815114156121a8576040517f08c379a000000000000000000000000000000000000000000000000000000000815260040161219f906138f9565b60405180910390fd5b805181602001fd5b63150b7a0260e01b7bffffffffffffffffffffffffffffffffffffffffffffffffffffffff1916817bffffffffffffffffffffffffffffffffffffffffffffffffffffffff191614915050612205565b600190505b949350505050565b60606000600161221c84612363565b01905060008167ffffffffffffffff81111561223b5761223a612a7d565b5b6040519080825280601f01601f19166020018201604052801561226d5781602001600182028036833780820191505090505b509050600082602001820190505b6001156122da578080600190039150507f3031323334353637383961626364656600000000000000000000000000000000600a86061a8153600a85816122c4576122c3613602565b5b04945060008514156122d5576122da565b61227b565b819350505050919050565b6122ef83836124b6565b6122fc6000848484612076565b61233b576040517f08c379a0000000000000000000000000000000000000000000000000000000008152600401612332906138f9565b60405180910390fd5b505050565b6000808273ffffffffffffffffffffffffffffffffffffffff163b119050919050565b600080600090507a184f03e93ff9f4daa797ed6e38ed64bf6a1f01000000000000000083106123c1577a184f03e93ff9f4daa797ed6e38ed64bf6a1f01000000000000000083816123b7576123b6613602565b5b0492506040810190505b6d04ee2d6d415b85acef810000000083106123fe576d04ee2d6d415b85acef810000000083816123f4576123f3613602565b5b0492506020810190505b662386f26fc10000831061242d57662386f26fc10000838161242357612422613602565b5b0492506010810190505b6305f5e1008310612456576305f5e100838161244c5761244b613602565b5b0492506008810190505b612710831061247b57612710838161247157612470613602565b5b0492506004810190505b6064831061249e576064838161249457612493613602565b5b0492506002810190505b600a83106124ad576001810190505b80915050919050565b600073ffffffffffffffffffffffffffffffffffffffff168273ffffffffffffffffffffffffffffffffffffffff161415612526576040517f08c379a000000000000000000000000000000000000000000000000000000000815260040161251d90613ada565b60405180910390fd5b61252f81611f60565b1561256f576040517f08c379a000000000000000000000000000000000000000000000000000000000815260040161256690613b46565b60405180910390fd5b61257d60008383600161206a565b61258681611f60565b156125c6576040517f08c379a00000000000000000000000000000000000000000000000000000000081526004016125bd90613b46565b60405180910390fd5b6001600360008473ffffffffffffffffffffffffffffffffffffffff1673ffffffffffffffffffffffffffffffffffffffff16815260200190815260200160002060008282540192505081905550816002600083815260200190815260200160002060006101000a81548173ffffffffffffffffffffffffffffffffffffffff021916908373ffffffffffffffffffffffffffffffffffffffff160217905550808273ffffffffffffffffffffffffffffffffffffffff16600073ffffffffffffffffffffffffffffffffffffffff167fddf252ad1be2c89b69c2b068fc378daa952ba7f163c4a11628f55a4df523b3ef60405160405180910390a46126d0600083836001612070565b5050565b6040518060600160405280600390602082028036833780820191505090505090565b82805461270290613007565b90600052602060002090601f016020900481019282612724576000855561276b565b82601f1061273d57805160ff191683800117855561276b565b8280016001018555821561276b579182015b8281111561276a57825182559160200191906001019061274f565b5b509050612778919061277c565b5090565b5b8082111561279557600081600090555060010161277d565b5090565b6000604051905090565b600080fd5b600080fd5b60007fffffffff0000000000000000000000000000000000000000000000000000000082169050919050565b6127e2816127ad565b81146127ed57600080fd5b50565b6000813590506127ff816127d9565b92915050565b60006020828403121561281b5761281a6127a3565b5b6000612829848285016127f0565b91505092915050565b60008115159050919050565b61284781612832565b82525050565b6000602082019050612862600083018461283e565b92915050565b600081519050919050565b600082825260208201905092915050565b60005b838110156128a2578082015181840152602081019050612887565b838111156128b1576000848401525b50505050565b6000601f19601f8301169050919050565b60006128d382612868565b6128dd8185612873565b93506128ed818560208601612884565b6128f6816128b7565b840191505092915050565b6000602082019050818103600083015261291b81846128c8565b905092915050565b6000819050919050565b61293681612923565b811461294157600080fd5b50565b6000813590506129538161292d565b92915050565b60006020828403121561296f5761296e6127a3565b5b600061297d84828501612944565b91505092915050565b600073ffffffffffffffffffffffffffffffffffffffff82169050919050565b60006129b182612986565b9050919050565b6129c1816129a6565b82525050565b60006020820190506129dc60008301846129b8565b92915050565b6129eb816129a6565b81146129f657600080fd5b50565b600081359050612a08816129e2565b92915050565b60008060408385031215612a2557612a246127a3565b5b6000612a33858286016129f9565b9250506020612a4485828601612944565b9150509250929050565b612a5781612923565b82525050565b6000602082019050612a726000830184612a4e565b92915050565b600080fd5b7f4e487b7100000000000000000000000000000000000000000000000000000000600052604160045260246000fd5b612ab5826128b7565b810181811067ffffffffffffffff82111715612ad457612ad3612a7d565b5b80604052505050565b6000612ae7612799565b9050612af38282612aac565b919050565b600067ffffffffffffffff821115612b1357612b12612a7d565b5b602082029050602081019050919050565b600080fd5b6000612b3c612b3784612af8565b612add565b90508083825260208201905060208402830185811115612b5f57612b5e612b24565b5b835b81811015612b885780612b748882612944565b845260208401935050602081019050612b61565b5050509392505050565b600082601f830112612ba757612ba6612a78565b5b8135612bb7848260208601612b29565b91505092915050565b60008060408385031215612bd757612bd66127a3565b5b6000612be585828601612944565b925050602083013567ffffffffffffffff811115612c0657612c056127a8565b5b612c1285828601612b92565b9150509250929050565b600080600060608486031215612c3557612c346127a3565b5b6000612c43868287016129f9565b9350506020612c54868287016129f9565b9250506040612c6586828701612944565b9150509250925092565b600060039050919050565b600081905092915050565b6000819050919050565b612c9881612923565b82525050565b6000612caa8383612c8f565b60208301905092915050565b6000602082019050919050565b612ccc81612c6f565b612cd68184612c7a565b9250612ce182612c85565b8060005b83811015612d12578151612cf98782612c9e565b9650612d0483612cb6565b925050600181019050612ce5565b505050505050565b6000606082019050612d2f6000830184612cc3565b92915050565b600060208284031215612d4b57612d4a6127a3565b5b6000612d59848285016129f9565b91505092915050565b612d6b81612832565b8114612d7657600080fd5b50565b600081359050612d8881612d62565b92915050565b60008060408385031215612da557612da46127a3565b5b6000612db3858286016129f9565b9250506020612dc485828601612d79565b9150509250929050565b7f4e487b7100000000000000000000000000000000000000000000000000000000600052602160045260246000fd5b60038110612e0e57612e0d612dce565b5b50565b6000819050612e1f82612dfd565b919050565b6000612e2f82612e11565b9050919050565b612e3f81612e24565b82525050565b6000602082019050612e5a6000830184612e36565b92915050565b600080fd5b600067ffffffffffffffff821115612e8057612e7f612a7d565b5b612e89826128b7565b9050602081019050919050565b82818337600083830152505050565b6000612eb8612eb384612e65565b612add565b905082815260208101848484011115612ed457612ed3612e60565b5b612edf848285612e96565b509392505050565b600082601f830112612efc57612efb612a78565b5b8135612f0c848260208601612ea5565b91505092915050565b60008060008060808587031215612f2f57612f2e6127a3565b5b6000612f3d878288016129f9565b9450506020612f4e878288016129f9565b9350506040612f5f87828801612944565b925050606085013567ffffffffffffffff811115612f8057612f7f6127a8565b5b612f8c87828801612ee7565b91505092959194509250565b60008060408385031215612faf57612fae6127a3565b5b6000612fbd858286016129f9565b9250506020612fce858286016129f9565b9150509250929050565b7f4e487b7100000000000000000000000000000000000000000000000000000000600052602260045260246000fd5b6000600282049050600182168061301f57607f821691505b6020821081141561303357613032612fd8565b5b50919050565b7f4552433732313a20617070726f76616c20746f2063757272656e74206f776e6560008201527f7200000000000000000000000000000000000000000000000000000000000000602082015250565b6000613095602183612873565b91506130a082613039565b604082019050919050565b600060208201905081810360008301526130c481613088565b9050919050565b7f4552433732313a20617070726f76652063616c6c6572206973206e6f7420746f60008201527f6b656e206f776e6572206f7220617070726f76656420666f7220616c6c000000602082015250565b6000613127603d83612873565b9150613132826130cb565b604082019050919050565b600060208201905081810360008301526131568161311a565b9050919050565b600060408201905061317260008301856129b8565b61317f60208301846129b8565b9392505050565b7f4552433732313a2063616c6c6572206973206e6f7420746f6b656e206f776e6560008201527f72206f7220617070726f76656400000000000000000000000000000000000000602082015250565b60006131e2602d83612873565b91506131ed82613186565b604082019050919050565b60006020820190508181036000830152613211816131d5565b9050919050565b7f4e487b7100000000000000000000000000000000000000000000000000000000600052603260045260246000fd5b600081905092915050565b50565b6000613262600083613247565b915061326d82613252565b600082019050919050565b600061328382613255565b9150819050919050565b7f4552433732313a20696e76616c696420746f6b656e2049440000000000000000600082015250565b60006132c3601883612873565b91506132ce8261328d565b602082019050919050565b600060208201905081810360008301526132f2816132b6565b9050919050565b7f4552433732313a2061646472657373207a65726f206973206e6f74206120766160008201527f6c6964206f776e65720000000000000000000000000000000000000000000000602082015250565b6000613355602983612873565b9150613360826132f9565b604082019050919050565b6000602082019050818103600083015261338481613348565b9050919050565b7f4e487b7100000000000000000000000000000000000000000000000000000000600052601160045260246000fd5b60006133c582612923565b91507fffffffffffffffffffffffffffffffffffffffffffffffffffffffffffffffff8214156133f8576133f761338b565b5b600182019050919050565b6000819050919050565b61341681613403565b82525050565b600067ffffffffffffffff82169050919050565b6134398161341c565b82525050565b600061ffff82169050919050565b6134568161343f565b82525050565b600063ffffffff82169050919050565b6134758161345c565b82525050565b600060a082019050613490600083018861340d565b61349d6020830187613430565b6134aa604083018661344d565b6134b7606083018561346c565b6134c4608083018461346c565b9695505050505050565b6000815190506134dd8161292d565b92915050565b6000602082840312156134f9576134f86127a3565b5b6000613507848285016134ce565b91505092915050565b600081905092915050565b600061352682612868565b6135308185613510565b9350613540818560208601612884565b80840191505092915050565b6000613558828561351b565b9150613564828461351b565b91508190509392505050565b7f4f776e61626c653a206e6577206f776e657220697320746865207a65726f206160008201527f6464726573730000000000000000000000000000000000000000000000000000602082015250565b60006135cc602683612873565b91506135d782613570565b604082019050919050565b600060208201905081810360008301526135fb816135bf565b9050919050565b7f4e487b7100000000000000000000000000000000000000000000000000000000600052601260045260246000fd5b600061363c82612923565b915061364783612923565b92508261365757613656613602565b5b828206905092915050565b60006040820190506136776000830185612e36565b61368460208301846129b8565b9392505050565b7f4552433732313a207472616e736665722066726f6d20696e636f72726563742060008201527f6f776e6572000000000000000000000000000000000000000000000000000000602082015250565b60006136e7602583612873565b91506136f28261368b565b604082019050919050565b60006020820190508181036000830152613716816136da565b9050919050565b7f4552433732313a207472616e7366657220746f20746865207a65726f2061646460008201527f7265737300000000000000000000000000000000000000000000000000000000602082015250565b6000613779602483612873565b91506137848261371d565b604082019050919050565b600060208201905081810360008301526137a88161376c565b9050919050565b7f4f776e61626c653a2063616c6c6572206973206e6f7420746865206f776e6572600082015250565b60006137e5602083612873565b91506137f0826137af565b602082019050919050565b60006020820190508181036000830152613814816137d8565b9050919050565b7f4552433732313a20617070726f766520746f2063616c6c657200000000000000600082015250565b6000613851601983612873565b915061385c8261381b565b602082019050919050565b6000602082019050818103600083015261388081613844565b9050919050565b7f4552433732313a207472616e7366657220746f206e6f6e20455243373231526560008201527f63656976657220696d706c656d656e7465720000000000000000000000000000602082015250565b60006138e3603283612873565b91506138ee82613887565b604082019050919050565b60006020820190508181036000830152613912816138d6565b9050919050565b7f45524337323155524953746f726167653a2055524920736574206f66206e6f6e60008201527f6578697374656e7420746f6b656e000000000000000000000000000000000000602082015250565b6000613975602e83612873565b915061398082613919565b604082019050919050565b600060208201905081810360008301526139a481613968565b9050919050565b600081519050919050565b600082825260208201905092915050565b60006139d2826139ab565b6139dc81856139b6565b93506139ec818560208601612884565b6139f5816128b7565b840191505092915050565b6000608082019050613a1560008301876129b8565b613a2260208301866129b8565b613a2f6040830185612a4e565b8181036060830152613a4181846139c7565b905095945050505050565b600081519050613a5b816127d9565b92915050565b600060208284031215613a7757613a766127a3565b5b6000613a8584828501613a4c565b91505092915050565b7f4552433732313a206d696e7420746f20746865207a65726f2061646472657373600082015250565b6000613ac4602083612873565b9150613acf82613a8e565b602082019050919050565b60006020820190508181036000830152613af381613ab7565b9050919050565b7f4552433732313a20746f6b656e20616c7265616479206d696e74656400000000600082015250565b6000613b30601c83612873565b9150613b3b82613afa565b602082019050919050565b60006020820190508181036000830152613b5f81613b23565b905091905056fea2646970667358221220853308b959916d8483f9c3d2d99cdaf446dbcc40efa9b519becd6e8881bca00a64736f6c63430008090033",
  "devdoc": {
    "kind": "dev",
    "methods": {
      "approve(address,uint256)": {
        "details": "See {IERC721-approve}."
      },
      "balanceOf(address)": {
        "details": "See {IERC721-balanceOf}."
      },
      "getApproved(uint256)": {
        "details": "See {IERC721-getApproved}."
      },
      "isApprovedForAll(address,address)": {
        "details": "See {IERC721-isApprovedForAll}."
      },
      "name()": {
        "details": "See {IERC721Metadata-name}."
      },
      "owner()": {
        "details": "Returns the address of the current owner."
      },
      "ownerOf(uint256)": {
        "details": "See {IERC721-ownerOf}."
      },
      "renounceOwnership()": {
        "details": "Leaves the contract without owner. It will not be possible to call `onlyOwner` functions. Can only be called by the current owner. NOTE: Renouncing ownership will leave the contract without an owner, thereby disabling any functionality that is only available to the owner."
      },
      "safeTransferFrom(address,address,uint256)": {
        "details": "See {IERC721-safeTransferFrom}."
      },
      "safeTransferFrom(address,address,uint256,bytes)": {
        "details": "See {IERC721-safeTransferFrom}."
      },
      "setApprovalForAll(address,bool)": {
        "details": "See {IERC721-setApprovalForAll}."
      },
      "supportsInterface(bytes4)": {
        "details": "See {IERC165-supportsInterface}"
      },
      "symbol()": {
        "details": "See {IERC721Metadata-symbol}."
      },
      "tokenURI(uint256)": {
        "details": "See {IERC721Metadata-tokenURI}."
      },
      "transferFrom(address,address,uint256)": {
        "details": "See {IERC721-transferFrom}."
      },
      "transferOwnership(address)": {
        "details": "Transfers ownership of the contract to a new account (`newOwner`). Can only be called by the current owner."
      }
    },
    "version": 1
  },
  "userdoc": {
    "kind": "user",
    "methods": {},
    "version": 1
  },
  "storageLayout": {
    "storage": [
      {
        "astId": 1324,
        "contract": "contracts/RandomIpfsNft.sol:RandomIpfsNft",
        "label": "_name",
        "offset": 0,
        "slot": "0",
        "type": "t_string_storage"
      },
      {
        "astId": 1326,
        "contract": "contracts/RandomIpfsNft.sol:RandomIpfsNft",
        "label": "_symbol",
        "offset": 0,
        "slot": "1",
        "type": "t_string_storage"
      },
      {
        "astId": 1330,
        "contract": "contracts/RandomIpfsNft.sol:RandomIpfsNft",
        "label": "_owners",
        "offset": 0,
        "slot": "2",
        "type": "t_mapping(t_uint256,t_address)"
      },
      {
        "astId": 1334,
        "contract": "contracts/RandomIpfsNft.sol:RandomIpfsNft",
        "label": "_balances",
        "offset": 0,
        "slot": "3",
        "type": "t_mapping(t_address,t_uint256)"
      },
      {
        "astId": 1338,
        "contract": "contracts/RandomIpfsNft.sol:RandomIpfsNft",
        "label": "_tokenApprovals",
        "offset": 0,
        "slot": "4",
        "type": "t_mapping(t_uint256,t_address)"
      },
      {
        "astId": 1344,
        "contract": "contracts/RandomIpfsNft.sol:RandomIpfsNft",
        "label": "_operatorApprovals",
        "offset": 0,
        "slot": "5",
        "type": "t_mapping(t_address,t_mapping(t_address,t_bool))"
      },
      {
        "astId": 2375,
        "contract": "contracts/RandomIpfsNft.sol:RandomIpfsNft",
        "label": "_tokenURIs",
        "offset": 0,
        "slot": "6",
        "type": "t_mapping(t_uint256,t_string_storage)"
      },
      {
        "astId": 1165,
        "contract": "contracts/RandomIpfsNft.sol:RandomIpfsNft",
        "label": "_owner",
        "offset": 0,
        "slot": "7",
        "type": "t_address"
      },
      {
        "astId": 4584,
        "contract": "contracts/RandomIpfsNft.sol:RandomIpfsNft",
        "label": "s_requestIdSender",
        "offset": 0,
        "slot": "8",
        "type": "t_mapping(t_uint256,t_address)"
      },
      {
        "astId": 4586,
        "contract": "contracts/RandomIpfsNft.sol:RandomIpfsNft",
        "label": "s_tokenCounter",
        "offset": 0,
        "slot": "9",
        "type": "t_uint256"
      },
      {
        "astId": 4592,
        "contract": "contracts/RandomIpfsNft.sol:RandomIpfsNft",
        "label": "s_dogTokenUris",
        "offset": 0,
        "slot": "10",
        "type": "t_array(t_string_storage)dyn_storage"
      },
      {
        "astId": 4597,
        "contract": "contracts/RandomIpfsNft.sol:RandomIpfsNft",
        "label": "s_initialized",
        "offset": 0,
        "slot": "11",
        "type": "t_bool"
      }
    ],
    "types": {
      "t_address": {
        "encoding": "inplace",
        "label": "address",
        "numberOfBytes": "20"
      },
      "t_array(t_string_storage)dyn_storage": {
        "base": "t_string_storage",
        "encoding": "dynamic_array",
        "label": "string[]",
        "numberOfBytes": "32"
      },
      "t_bool": {
        "encoding": "inplace",
        "label": "bool",
        "numberOfBytes": "1"
      },
      "t_mapping(t_address,t_bool)": {
        "encoding": "mapping",
        "key": "t_address",
        "label": "mapping(address => bool)",
        "numberOfBytes": "32",
        "value": "t_bool"
      },
      "t_mapping(t_address,t_mapping(t_address,t_bool))": {
        "encoding": "mapping",
        "key": "t_address",
        "label": "mapping(address => mapping(address => bool))",
        "numberOfBytes": "32",
        "value": "t_mapping(t_address,t_bool)"
      },
      "t_mapping(t_address,t_uint256)": {
        "encoding": "mapping",
        "key": "t_address",
        "label": "mapping(address => uint256)",
        "numberOfBytes": "32",
        "value": "t_uint256"
      },
      "t_mapping(t_uint256,t_address)": {
        "encoding": "mapping",
        "key": "t_uint256",
        "label": "mapping(uint256 => address)",
        "numberOfBytes": "32",
        "value": "t_address"
      },
      "t_mapping(t_uint256,t_string_storage)": {
        "encoding": "mapping",
        "key": "t_uint256",
        "label": "mapping(uint256 => string)",
        "numberOfBytes": "32",
        "value": "t_string_storage"
      },
      "t_string_storage": {
        "encoding": "bytes",
        "label": "string",
        "numberOfBytes": "32"
      },
      "t_uint256": {
        "encoding": "inplace",
        "label": "uint256",
        "numberOfBytes": "32"
      }
    }
  }
}